:020000040800F2
:1000000098BA0120BD000108131C01080F1C01084B
:10001000111C010849070108012201080000000025
:1000200000000000000000000000000001000108C6
:10003000450801080000000055000108A71C010840
:10004000D7000108D7000108D7000108D700010830
:10005000D7000108D700010855080108D70001089A
:10006000D7000108D7000108D7000108D700010810
:10007000D7000108D7000108D7000108D700010800
:10008000D7000108D7000108D7000108D7000108F0
:10009000D7000108D7000108D7000108D7000108E0
:1000A000D7000108D7000108D7000108D7000108D0
:1000B000D7000108D7000108D7000108D7000108C0
:1000C000D7000108D7000108D7000108D7000108B0
:1000D000D7000108D7000108D7000108D7000108A0
:1000E000D7000108D7000108D7000108D700010890
:1000F000D7000108D7000108D7000108D700010880
:10010000D7000108D7000108D7000108D70001086F
:10011000D7000108D7000108651D0108D7000108B4
:10012000D7000108D7000108D7000108D70001084F
:10013000D700010849080108D7000108D7000108C5
:10014000D7000108D7000108D7000108D70001082F
:10015000D7000108D7000108D7000108D70001081F
:10016000D7000108D7000108D7000108D70001080F
:10017000D7000108D7000108D700010800000000DF
:10018000D7000108D7000108D7000108D7000108EF
:10019000D7000108D7000108D7000108D7000108DF
:1001A000D7000108D7000108D7000108D7000108CF
:1001B000D7000108D7000108D7000108D7000108BF
:1001C000D7000108D7000108D7000108D7000108AF
:1001D000D7000108D7000108D7000108D70001089F
:1001E000D7000108D7000108D7000108D70001088F
:1001F000D7000108D7000108DFF80CD000F006F89E
:1002000000480047292B010898BA0120064C074DE9
:1002100006E0E06840F0010394E8070098471034D6
:10022000AC42F6D3FFF7ECFF500200087002000862
:1002300002E008C8121F08C1002AFAD170477047AF
:10024000002001E001C1121F002AFBD1704700000D
:10025000883F0108000000209800000030020008DC
:100260002040010898000020FC160300400200080E
:020000040801F1
:100000002B4B19680868B0E8F04F80F30988BFF3FC
:100010006F8F4FF0000080F31188704700000000E0
:1000200006480068006880F3088862B661B6BFF3CE
:100030004F8FBFF36F8F00DF00BF00BF08ED00E000
:10004000DFF80C00016841F470010160704700BFE7
:1000500088ED00E0EFF30980BFF36F8F144B1A684F
:100060001EF0100F08BF20ED108A20E9F04F10603D
:1000700008B44FF0500072B680F31188BFF34F8F71
:10008000BFF36F8F62B603F0C5FA4FF0000080F344
:10009000118808BC19680868B0E8F04F1EF0100F0E
:1000A00008BFB0EC108A80F30988BFF36F8F7047E8
:1000B00024000020EFF305807047000006488047C9
:1000C00006480047FEE7FEE7FEE7FEE7FEE7FEE73D
:1000D000FEE7FEE7FEE7FEE7111D0108F901000853
:1000E0002DE9F05F0546002092469B46884606466D
:1000F000814640241BE0284641464746224600F000
:1001000020F853465A46C01A914110D3114618465A
:10011000224600F086F82D1A67EB01084F4622466A
:100120000120002100F07DF817EB00094E41201E50
:10013000A4F10104DFDC484631462A464346BDE8C7
:10014000F09F202A04DB203A21FA02F000217047B8
:1001500021FA02F3D040C2F120029140084319462F
:10016000704710B5431A934209D28318881803E0E8
:1001700010F8011D03F8011D521EF9D210BD40EA0E
:1001800001039B0703D009E008C9121F08C0042A15
:10019000FAD203E011F8013B00F8013B521EF9D2FC
:1001A00010BDD2B201E000F8012B491EFBD270470E
:1001B0000022F6E710B513460A4604461946FFF733
:1001C000F0FF204610BDC1F30A52C1F3130140F203
:1001D000FF3341F480119A4202DA00200146704751
:1001E00040F233439A42A2F2334202DC5242FFF71A
:1001F000A8BF00F016B830B50B46014600202022FB
:10020000012409E021FA02F59D4205D303FA02F523
:10021000491B04FA02F52844151EA2F10102F1DC83
:1002200030BD202A04DB203A00FA02F1002070479A
:100230009140C2F1200320FA03F319439040704724
:1002400010B5141E73F1000408DA401C41F10001DE
:1002500092185B411A4301D120F0010010BD2DE935
:10026000F04D92469B4611B1B1FA81F202E0B0FA2C
:1002700080F220329046FFF7D4FF04460F4640EA52
:100280000A0041EA0B0153465A46084313D011466F
:1002900053EA010019D0C8F140025046FFF751FF60
:1002A00005460E46504659464246FFF7BAFF0843F8
:1002B00005D0012004E020463946BDE8F08D00203D
:1002C000054346EAE0762C4337430A986305E40A7F
:1002D000A0EB08000022FD0A44EA47540A3002D588
:1002E00000200146E9E7010510196941DDE90845EB
:1002F00000196941BDE8F04DA2E72DE9FE4F8046A7
:1003000081EA0300C00F0C46009021F0004123F069
:100310000045B8EB0200A94105D24046214690466F
:100320001C460B46024623F00040104347D0270DE1
:10033000C7F30A00C3F30A510290401A0190402803
:100340006BDAC3F3130040F4801B0098924620B18F
:100350000023D2EB030A63EB0B0B01985946C0F163
:1003600040025046FFF75DFF06460D46504659468F
:10037000019A00F063F910EB08006141002487EA5C
:10038000115284EAE7731A4340D0009A62B3019A8B
:10039000012A4FEA075215DC001B61EB02014FF006
:1003A000004202EA0752CDE90042001C41F58011EB
:1003B00032462B46FFF753FF03B0BDE8F08F4046AF
:1003C0002146F9E7001B61EB0201001C41F5801397
:1003D00000185B412018A2F5001747EB030140EA23
:1003E000D570B6196D4111E06D084FEA360645EA41
:1003F000C0754FEA0752001B61EB0201001C41F57A
:10040000801149084FEA30000019514132462B460D
:1004100003B0BDE8F04FFFF713BF00980122400082
:100420000023D0EB020263EBE073009821464FEA11
:10043000E074B8EB000061EB0401E9E783F00043EE
:100440005BE781F0004158E72DE9FE4F81EA0304A4
:1004500004F0004421F0004100944FF0000B23F021
:10046000004350EA01045ED052EA03045BD0C3F3B8
:100470000A54C1F30A552C44A4F2F3340194A0FBAE
:100480000254C1F3130141F48011C3F3130343F485
:10049000801301FB024400FB034E840A970A44EADE
:1004A000815447EA8357A4FB076802958D0A05FB30
:1004B00007854FEA932C04FB0C542705029D4FEA55
:1004C000065847EA1637B5EB08056EEB070C870EA2
:1004D000920E47EA811742EA8312A7FB0201B6EBAC
:1004E0000B0164EB00042B0D43EA0C335E1844EB64
:1004F0001C50DA465146E7FB0201C5F313044FEAEC
:100500000B3343EA14534FEA0432019C43EA0603D7
:10051000A4F10C040294009CCDE900B4FFF79FFE07
:1005200003B0BDE8F08F00200146F9E72DE9F04D5A
:1005300081EA030404F0004B21F0004514464FF01B
:10054000000A23F0004150EA050220D054EA0102DB
:100550001DD0C5F30A570246C5F31303C1F31300B8
:10056000C1F30A5640F4801543F48013A7EB060844
:10057000101BD64608F2FD3873EB050002D308F1D4
:10058000010801E092185B41B8F1000F03DA002086
:100590000146BDE8F08D00204FF4801106468446E8
:1005A0000EE0171B73EB050705D3121B63EB050366
:1005B00006434CEA010C49084FEA300092185B41AF
:1005C00050EA0107EDD152EA030012D082EA04009A
:1005D00083EA0501084305D0101BAB4106D2012276
:1005E000002306E000224FF0004302E06FF001021A
:1005F00053101AEB06004CEB085110EB0A0041EBCC
:100600000B01BDE8F04DFFF71BBE000030B5041E26
:1006100071F1000404DB4FF00044404264EB01013F
:10062000141E73F1000405DB1C464FF000435242D8
:1006300063EB0403994208BF904230BD202A06DBD9
:10064000CB17203A41FA02F043EAE07306E041FAA0
:1006500002F3D040C2F1200291400843194670478E
:100660000E4900B587B00A6842F400720A60096852
:1006700003230B4A01F400710591012152F8202057
:10068000CDE90021CDE902130549083151F82000D8
:10069000694600F055F907B000BD0000303802404F
:1006A000080000200449044A083231F8201052F8AA
:1006B000200089B200F030BA0800002030B50446AE
:1006C0001D4887B0026842F00102026000684FF0E6
:1006D00002021A4D1A4B00F0010005904FF0000085
:1006E000E9B1012919D135F81410164DCDE90202EE
:1006F000CDE9001553F82400694600F021F90F4DAB
:1007000000220F21AD1C15F8140040B200F0C8FA09
:1007100015F8140040B200F0B6FA07B030BD35F855
:100720001410CDE90010CDE9020253F82400694607
:1007300000F006F9F1E7000030380240843F01087C
:100740000400002000001110FEE70000F0B5BFF328
:100750004F8FBFF36F8F1A4900200860BFF34F8F90
:10076000BFF36F8F174A116841F400311160BFF376
:100770004F8FBFF36F8F134970310860BFF34F8FF6
:10078000081F43F6FF7400680D4D1035C0F34E315D
:10079000C0F3C90304EA4116184600BF46EA807751
:1007A0002F60401EFAD2491EF4D2BFF34F8F10685B
:1007B00040F480301060BFF34F8FBFF36F8FF0BDF8
:1007C00050EF00E014ED00E01A4810B586B0016863
:1007D00041F001010160006800F00100059015483A
:1007E0001430016841F010010160006801224FF4EB
:1007F000C06100F010000590022007230493CDE9AA
:100800000010CDE902200C48694600F099F80C4828
:1008100000210A4A0C244FF4E1330260C0E901319F
:10082000C160C0E904148161C16101F05EF906B0E4
:1008300010BD0000303802400000024000100140AE
:10084000A099012070470000014800F020B8000086
:10085000109A0120012000F067B80120FFF722FF65
:10086000C82000F001F8F8E770B5044600F058F928
:100870000546601C02D004480078044400F050F99A
:10088000401BA042FAD370BD18000020704770B51D
:1008900004460068002500F580500126416949069C
:1008A00008D5204600F02EF82068402100F5805041
:1008B000416109E04069C0070AD0204600F028F8ED
:1008C000206800F58050466184F8446084F8455003
:1008D0004FF48031206800F580504161206800F5B8
:1008E0008050406900040CD52046FFF7CFFF2068F8
:1008F0004FF4004100F58050416184F8446084F871
:10090000455070BD0148006802F0B2B99000002067
:1009100070470000012803D102490878401C087084
:100920007047000084000020044910B50A680242A4
:1009300002D00860FFF7EEFF10BD0000143C01403C
:100940002DE9F84FDFF89CE100224FF001084FF04D
:10095000030B4FF00F0A00BF0B6808FA02F42340A4
:10096000A34271D14D68022D01D0122D0FD1D508AF
:100970000E69570700EB8505A9462D6AFF0E0AFA96
:1009800007FCBE4025EA0C052E43C9F820600F790C
:10099000550006680BFA05FC07F0030726EA0C066B
:1009A000AF40374307604E68012E05D0022E03D0BA
:1009B000112E01D0122E0ED18668CF6826EA0C06C1
:1009C000AF403743876046680F79A643C7F30017E7
:1009D000974037434760C4688E6824EA0C04AE40F1
:1009E0002643C6604C68E40075D53F4C256845F445
:1009F00080452560246822F00306950704F48044AE
:100A000000943A4C2D0F2644D6F80848DFF8E0C091
:100A10000AFA05F7604524EA070401D100272EE011
:100A2000344FB84201D1012729E0334FB84201D1F8
:100A3000022724E0314FB84201D103271FE0304F95
:100A4000B84202D104271AE045E02E4FB84201D146
:100A5000052714E02C4FB84201D106270FE02B4F99
:100A6000B84201D107270AE0294FB84201D108272F
:100A700005E0284FB84201D1092700E00A27AF401E
:100A800027437546C6F808784E68DEF80040F6033E
:100A900024EA030400D51C43124E2C60361D4D6819
:100AA0003468AD0324EA030400D51C430D4F3460C1
:100AB00008374D683C68ED0224EA030400D51C4366
:100AC000084D3C600C354E682C68B60224EA0304DD
:100AD00000D51C432C60521C102AFFF43DAFBDE82A
:100AE000F88F0000003C01404438024000300140D3
:100AF000000002400004024000080240000C0240D6
:100B0000001002400014024000180240001C024085
:100B1000002002400024024042694A40426170477E
:100B20000148806870470000180000200248816872
:100B3000027811448160704718000020094810B500
:100B4000016841F400710160016841F48071016045
:100B5000032000F0C5F80F2000F006F800F092F82E
:100B6000002010BD003C024010B500220146362096
:100B700088B000F095F8362000F085F81648016836
:100B800041F010010160006806A900F01000059016
:100B9000684600F021FC0398B0B100F03DFC400035
:100BA0000E4900220E4CB0FBF1F10E4840F2E73343
:100BB0000460C0E90332491EC0E9011200F0A8FE3A
:100BC00028B1012008B010BD00F026FCE8E7054878
:100BD00000F0BAFEF6E700004038024040420F0045
:100BE00000100040589A0120F0B5154C4378211DA3
:100BF0000A1D23600378F3B143680B60057BC67A56
:100C0000817A437B2D07847B45EA0665C77B90F894
:100C100009C0067A90F800E045EAC14040EA834006
:100C200040EA444040EA074040EA0C2040EA4600DF
:100C300040EA0E0001E0002008601060F0BD0000F6
:100C400098ED00E0BFF35F8F044800210368034A7A
:100C500023F48033036070321160704724ED00E0AC
:100C6000074A40F00100064970321060086840F4FD
:100C700080300860BFF34F8FBFF36F8F7047000065
:100C800024ED00E07047002809DB410900F01F0255
:100C90008900012001F1E0219040C1F80001704776
:100CA0000E4BF0B41B680D46C3F30223C3F10706D5
:100CB000042E00D90426191D072901D2002300E0C3
:100CC000DB1E012404FA06F19C40491E2940641EE3
:100CD000994014402143F0BC01F0A4BA0CED00E0AF
:100CE000064900F0070210B54FF6FF040868044BF0
:100CF000204040EA02201843086010BD0CED00E0DF
:100D00000000FA051848F8B5016841F0805101600B
:100D10000068164C00F080500090206840F480304D
:100D20002060FFF7FDFE4FF47A76054605E000BF30
:100D3000FFF7F6FE401BB0420FD86068C003F7D53E
:100D4000206840F400302060FFF7EAFE054606E028
:100D5000FFF7E6FE401BB04201D90320F8BD6068F2
:100D60008003F5D50020F8BD4038024000700040F7
:100D70002DE9F84F04460078DFF824944FF0000680
:100D80003746C0070ED0D9F8001021F40001C9F889
:100D90000010D9F80010626B1143C9F80010606BA5
:100DA00000B90126FE4D2068843500030ED5E16BA5
:100DB000286820F4401008432860E06BB0F5801FDD
:100DC00001D010B102E0012600E0012720684FF4B5
:100DD000800BC0020CD5216C286820F44000084329
:100DE0002860206C584501D1012601E000B9012797
:100DF0002068C10100D50126800666D5E848383054
:100E0000016841F0805101600068DFF898A300F0AC
:100E100080500090DAF8001041F48071CAF8001098
:100E2000FFF77EFE804605E0FFF77AFEA0EB0800A4
:100E300064287DD8DAF80000C005F5D5DFF86083B6
:100E400008F16808D8F8000010F440702AD0218E0C
:100E500001F44071814225D0D8F80010D8F8002064
:100E600021F4407142F48032C8F80020D8F8002004
:100E700022F48032C8F80020C8F80010D8F800002A
:100E8000C0070FD0FFF74CFE824607E0FFF748FE91
:100E9000A0EB0A0141F288308142CAD8D8F800009C
:100EA0008007F3D5206BC0F3012103297ED0D9F848
:100EB000001021F4F811C9F80010228ED8F80010A3
:100EC000C2F30B021143C8F800102078C00607D502
:100ED000286820F0807028602868A16B084328608B
:100EE0002188AF488830490405D5626E016821F435
:100EF0004031114301602188090405D5A26E0168C3
:100F000021F44021114301602168C90305D5E26E37
:100F1000016821F44011114301602168890305D55E
:100F2000226F016821F4400111430160217800E043
:100F300034E1490605D5626C016821F003011143D3
:100F400001602178090605D5A26C016821F00C0129
:100F5000114301602188C90505D5E26C016821F0C3
:100F60003001114301602188890505D5226D016892
:100F700021F0C001114301602188490505D5626D4A
:100F8000016821F44071114301602188090505D5EC
:100F9000A26D016821F44061114301602188C904F8
:100FA00007D5E26D016821F4405100E05FE0114394
:100FB00001602188890405D5226E016821F4404131
:100FC000114301602168490205D5A26F016821F033
:100FD00080611143016021684FF0006A890209D5E0
:100FE000E26F016821F0006111430160E16F51453A
:100FF00000D1012721680A0700D50127490305D53B
:10100000626F016821F0407111430160216809029B
:1010100006D5D4F88020016821F080511143016089
:101020002168490106D5D4F88420016821F00051D7
:10103000114301602068000106D5D4F888102868A3
:1010400020F00070084328602068C00006D5D4F85E
:101050008C10286820F0806008432860DFF84891F1
:10106000012E0ED02068B0F1007F0AD08FE04F4AE9
:10107000D9F80030104023F4F8120243C9F80020D8
:101080001BE7D9F800004E4620F08060C9F8000048
:10109000FFF746FD804605E0FFF742FDA0EB0800A4
:1010A00064287BD830680001F6D421783C487C3035
:1010B000C90712D0616B81B9237A62680168D0F8E0
:1010C00000C09201C1F3014142EA0142CCF3036145
:1010D00042EA016141EA0371016021680A0303D514
:1010E000E26BB2F5801F04D0C9021AD5216C5945B4
:1010F00017D16368016894F80CC002689B01C1F3C2
:10110000014143EA0141C2F3027241EA0C6141EA42
:10111000027101602968626A21F01F01521E1143A9
:1011200029602168C90110D5238A62680168D0F856
:1011300000C09201C1F3036142EA034242EA016244
:10114000CCF3027142EA01710160216889010CD57A
:101150006168228A237B94F808C0890141EA024130
:1011600041EA036141EA0C7101603168B04641F027
:1011700080613160FFF7D4FC064604E0FFF7D0FC45
:10118000801B64280AD8D8F800000001F6D5E7B320
:10119000D9F800004E4620F0805009E07BE00000C6
:1011A000083802400070004000380240FFFCFF0F8A
:1011B000C9F80000FFF7B4FC074604E0FFF7B0FCF5
:1011C000C01B642867D83068C0438000F6D521680A
:1011D00035480A0301D5E26B1AB1C9021DD5216C4D
:1011E000D9B963690168277E02689B01C1F3014197
:1011F00043EA0143C2F3027143EA076242EA017122
:10120000016029686FF0FF0300E04BE0A26A21F45F
:10121000F85103EB0222114329602168890212D59B
:10122000E16F51450FD1238C626901680768920113
:10123000C1F3036142EA034242EA0162C7F3027169
:1012400042EA017101602178090716D561690268D7
:10125000D0F800C08B01277FC2F30362CCF30141B9
:1012600043EA014141EA026141EA077101602868ED
:10127000E16A20F4403008432860306840F0805034
:101280003060FFF74DFC044608E000BFFFF748FC64
:10129000001B642802D90320BDE8F88F3068C043E2
:1012A0008000F3D40020F7E7883802402DE9F047AA
:1012B00005000F4663D0444E306800F00F00B8427E
:1012C00009D2306820F00F0038433060306800F0F9
:1012D0000F00B84253D128683C4C810712D5400713
:1012E00003D5206840F4E05020602878000703D53B
:1012F000206840F460402060A968206820F0F00079
:10130000084320602878C0072AD030496868083927
:10131000012810D00968022810D0890700292EDA88
:10132000216821F0030101432160FFF7F9FB8046AA
:1013300041F288390DE009688903EFE78901EDE79B
:10134000FFF7EEFBA0EB0801494502D90320BDE8F9
:10135000F0876868216801F00C01B1EB800FEFD1D4
:10136000306800F00F00B8420BD9306820F00F0051
:1013700038433060306800F00F00B84201D00120DF
:10138000E5E72878400705D5E968206820F4E050B3
:10139000084320602878000706D52869216821F4D1
:1013A000604141EAC000206000F056F82168084A18
:1013B000C1F30311515CC840064908600F20FFF7D4
:1013C000D3FB0020C3E70000003C02400838024085
:1013D0006C3F0108000000200D4A0F2330B5036068
:1013E0004FF4E0540B4B156805F003054560156894
:1013F00005F0F0058560156805F4E055C5601268D4
:1014000004EAD2020261186800F00F00086030BDE3
:1014100008380240003C0240044905480968006859
:10142000044AC1F38221515CC84070470838024029
:10143000000000207C3F0108044905480968006855
:10144000044AC1F34231515CC84070470838024039
:10145000000000207C3F0108154910B515480968B7
:1014600011F00C0213D01449042A0FD0082A0ED10F
:101470000F4C241F2268236802F03F025B0207D54D
:101480002068C0F38810A0FB010106E0084610BDEB
:101490002168C1F38811A1FB00010023FEF720FEA3
:1014A0002168C1F30141491C4900B0FBF1F010BDB6
:1014B000083802400024F40040787D012DE9F84FFF
:1014C00005004FF000076ED02878DFF82093A9F1CF
:1014D000040AC007AAF104044CD0D9F80010484609
:1014E000C1F38101012908D00068C0F381000228FE
:1014F0000AD1DAF80000400206D52068800339D509
:1015000068680028DFD035E06868B0F5803F0BD010
:1015100010B1B0F5A02F11D0206820F480302060E9
:10152000206820F4802002E0206840F480302060B1
:10153000686890B1FFF7F4FA06460AE0206840F4C4
:1015400080202060F0E700BFFFF7EAFA801B6428E4
:1015500072D820688003F7D50CE0FFF7E1FA064661
:1015600005E000BFFFF7DCFA801B6428F0D8206894
:101570008003F7D42878800742D5D9F80010484670
:1015800011F00C0F08D00068C0F3810002280BD1C5
:10159000DAF80000400207D42068800718D5E86810
:1015A000012800D114E01EE1E8680028206817D067
:1015B00040F001002060FFF7B3FA064605E000BFE7
:1015C000FFF7AEFA801B0228C2D820688007F7D543
:1015D0002869216821F0F80141EAC00020600FE08D
:1015E00020F001002060FFF79BFA064605E000BFEF
:1015F000FFF796FA801B02281ED820688007F7D4D0
:101600002878000729D5794869696C300029804617
:10161000016812D041F001010160FFF781FA06462E
:1016200005E000BFFFF77CFA801B022804D8D8F839
:1016300000008007F6D510E089E021F0010101608B
:10164000FFF76EFA064604E0FFF76AFA801B0228ED
:101650007DD8D8F800008007F6D4287840076BD5ED
:10166000DFF8888108F13808D8F80000C0000BD4F2
:10167000D8F8001041F08051C8F80010D8F80000E8
:10168000012700F08050009059480168C90512D424
:101690000168834641F480710160FFF741FA064614
:1016A00005E000BFFFF73CFA801B64284FD8DBF849
:1016B0000000C005F6D54D4EA868683601280AD04E
:1016C00008B1052811D0306820F001003060306882
:1016D00020F0040002E0306840F001003060A868AB
:1016E000A0B1FFF71DFA83460CE0306840F004001B
:1016F0003060F0E7FFF714FAA0EB0B0141F28830FD
:10170000814268D830688007F4D50EE0FFF708FA08
:10171000834607E0FFF704FAA0EB0B0141F28830A3
:10172000814258D830688007F4D42FB1D8F800101F
:1017300021F08051C8F80010A869E0B3D9F8001072
:10174000C1F3810102294ED00228206800E042E066
:1017500020F08070206003D0FFF7E2F905463DE0FD
:10176000FFF7DEF9064604E0FFF7DAF9801B0228EE
:1017700031D820688001F7D4D5E90921DFF874C099
:10178000D5E9070695F830304F0895F82C1030430E
:101790000CEB074545EA8212104340EA016040EA3B
:1017A0000370CAF80000206840F080702060FFF7E6
:1017B000B7F9054605E014E0FFF7B2F9401B02282F
:1017C00009D820688001F7D50BE000BFFFF7A8F922
:1017D000401B022802D90320BDE8F88F2068800151
:1017E000F4D40020F8E70120F6E7000008380240B2
:1017F000007000400000FFFF10B5040002D0607AC6
:1018000010B106E0012010BD00202072204600F03B
:101810000BF80220607201212068026842F0040285
:1018200002606172002010BD08B500680649884258
:1018300008D10648016841F040010160006800F0ED
:101840004000009008BD00000008065034380240F7
:101850002DE9F041040002D0607F18B107E00120BB
:10186000BDE8F08100202077204600F041F80220FA
:101870006077CA212268532051622168486220465D
:1018800000F0F4F9002820684FF0FF0103D0042293
:1018900041626277E3E7154D012382682A40826046
:1018A000D4E90026D4E9045790683D4330432843E7
:1018B00090602268E068106120682289056945EA25
:1018C000024202612068C26822F08002C260206881
:1018D000C26C22F00802C2642068A569C26C2A4367
:1018E000C2642068416263770020B9E7BFFF8FFFC1
:1018F00000680449884204D10348016841F400416A
:1019000001607047002800407038024070477047FF
:1019100010B5040003D094F83D0010B107E0012099
:1019200010BD002084F83C00204600F00CF8022096
:1019300084F83D002068211D00F01AFA012084F887
:101940003D00002010BD70470168CA6842F00102E6
:10195000CA600068016841F0010101600020704721
:10196000704770B50446006800250169C9438907BE
:1019700015D4C168C943890711D4EA1E0261012147
:101980002177206880698007204602D0FFF7E8FFB2
:1019900004E000F0A5F8204600F0A3F825772068C1
:1019A0000169C943490717D4C168C943490713D41A
:1019B00002216FF00402026121772068806910F42F
:1019C000407F204602D0FFF7CBFF04E000F088F80C
:1019D000204600F086F8257720680169C943090789
:1019E00016D4C168C943090712D404216FF0080254
:1019F000026121772068C0698007204602D0FFF786
:101A0000AFFF04E000F06CF8204600F06AF825779C
:101A100020680169C943C90617D4C168C943C9060A
:101A200013D408216FF01002026121772068C06989
:101A300010F4407F204602D0FFF792FF04E000F050
:101A40004FF8204600F04DF8257720680169C9431A
:101A5000C90708D1C168C943C90704D1891E0161FA
:101A6000204600F03FF820686FF080050169C94307
:101A7000090607D4C168C943090603D40561204695
:101A8000FFF744FF20680169C943C90507D4C1684D
:101A9000C943090603D405612046FFF737FF2068D4
:101AA0000169C943490609D4C168C943490605D437
:101AB0006FF040010161204600F016F820680169CE
:101AC000C94389060BD4C168C943890607D46FF09E
:101AD000200101612046BDE87040FFF718BF70BDCE
:101AE00070477047FFF722B8704710B5040003D065
:101AF00094F8690010B107E0012010BD002084F8BF
:101B00006800204600F026F8242084F86900206848
:101B1000016821F001010160204600F013FA01285C
:101B2000EBD0606A10B1204600F088F92068416867
:101B300021F4904141602068816821F02A01816090
:101B40002068016841F0010101602046BDE81040B5
:101B500000F0D8B9704700002DE9F843044690F82A
:101B600069001F4616460D4620284ED1C5B1BEB1AC
:101B700094F86800012848D0012284F868202121C7
:101B80004FF00008C4F86C8084F869105034FEF7F8
:101B9000C7FF268081466680503C4FF4805619E08E
:101BA0000120BDE8F88300BFB4F85200401EA4F83D
:101BB000520000224B4680212046009700F0EEFAAA
:101BC000A0B9A068B04201D1206988B115F8010B15
:101BD00021688862B4F852000028E5D100224B4603
:101BE00040212046009700F0D9FA38B10320D8E709
:101BF00035F8020B2168C0F30800EAE7202184F8D9
:101C00006910002084F86880CBE70220C9E7FEE76E
:101C1000FEE7704710B5AAB0FFF774F808B1FEF7F9
:101C20001CFE0DF1900C022100240F208CE8130003
:101C3000CB024FF4A0520721CDE9272324A8FFF7B8
:101C400035FB08B1FEF709FE0748119415940113FE
:101C50001F940C9100906846FFF78AF8002801D085
:101C6000FEF7FBFD2AB010BD6004200070B50446ED
:101C70000068C168490614D44FF0FF31C160FEF717
:101C80004FFF4FF47A76054607E000BFFEF748FFA6
:101C9000401BB04201D9032070BD2068C0684006D7
:101CA000F4D5002070BD01F00BB80000164870B5E7
:101CB0008EB0016841F080510160006800F08050F2
:101CC0000D901248016841F4404101600068022112
:101CD0000DF1180C00F440400D90012305934C05C4
:101CE00019254FF4D876CA038CE872000920CDE993
:101CF0000002CDE90A106846FFF7E0FB002801D09A
:101D0000FEF7ABFD0EB070BD4038024000700040E1
:101D1000104A30B51048146800210F4B44F4700489
:101D20001460083305680D4A0D4C45F00105056047
:101D300019600368051D1340074A03600C322C60CC
:101D40000568E305034C25F480250560803C11609F
:101D5000236030BD88ED00E000380240FFFFF6FE52
:101D6000103000240148FFF7FCBD0000589A012004
:101D7000F0B5274B4FF0804E264D02689842264E14
:101D8000264F274C09D0704507D0A84205D0B04255
:101D900003D0B84201D0A04205D1D1F804C022F04E
:101DA00070024CEA020298421BD0704519D0A8423A
:101DB00017D0B04215D0B84213D0A04211D0194D5F
:101DC000A8420ED0184DA8420BD0184DA84208D0FA
:101DD000174DA84205D0174DA84202D0164DA84273
:101DE00003D1CD6822F440722A434D6922F080026B
:101DF0002A43026098428A68C2620A68826201D0FD
:101E0000A04201D10969016301214161F0BD0000D7
:101E1000000001400004004000080040000C0040A9
:101E200000040140004001400044014000480140DE
:101E300000180040001C00400020004090F82410D2
:101E4000C90706D00168836A4A6822F400321A433F
:101E50004A6090F82410890706D50168C36A4A6869
:101E600022F480321A434A6090F82410490706D5BC
:101E70000168036B4A6822F480221A434A6090F892
:101E80002410090706D50168436B4A6822F4004212
:101E90001A434A6090F82410C90606D50168836B7E
:101EA0008A6822F480521A438A6090F824108906C6
:101EB00006D50168C36B8A6822F400521A438A600F
:101EC00090F82410490611D50168036C4A6822F481
:101ED00080121A434A60016CB1F5801F06D1016877
:101EE000436C4A6822F4C0021A434A6090F82410F6
:101EF000090606D50168826C486820F4002010436A
:101F00004860704738B500250446C566FEF708FEF0
:101F100003462068006800070BD56FF07E400090F4
:101F2000002220464FF4001100F038F908B10320D8
:101F300038BD202084F8690084F8685084F86A006D
:101F4000002038BD2DE9F04704468068874B884F54
:101F50002668D4E90415E2690843D6F800C01021C8
:101F600015430022284315460CEA030C814B4CEA2A
:101F7000000CC6F800C04FF400492068D4F80CC02B
:101F8000466826F4405646EA0C0646602668D4F8B1
:101F90002080A069D6F808C040EA08002CF4306C14
:101FA0004CEA000CC6F808C02068B8420AD11B6889
:101FB00013F0030352D0012B7AD0022B76D0032BDF
:101FC00079D177E06C4EB0420AD11B6813F00C0354
:101FD0006AD0042B6CD0082B68D00C2B6BD169E035
:101FE000664EB0420AD11B6813F030035CD0102B50
:101FF0005ED0202B5AD0302B5DD15BE0604EB042DA
:102000000AD11B6813F0C0034ED0402B50D0802B58
:102010004CD0C02B4FD14DE05A4EB0420DD11B6871
:1020200013F4407340D0B3F5807F41D0B3F5007F07
:102030003CD0B3F5407F3ED13CE0534EB0420FD18F
:102040001B6813F4406309D0B3F5806F30D0B3F54B
:10205000006F2BD0B3F5406F2DD12BE001212AE08A
:102060004A4EB0420DD11B6813F440531CD0B3F557
:10207000805F1DD0B3F5005F18D0B3F5405F1AD173
:1020800018E0434EB04216D11B6813F440430BD006
:10209000B3F5804F0CD04B4508D0B3F5404F0AD173
:1020A00008E005E002E0FFE7002104E0022102E091
:1020B000042100E00821E6694E452AD109291FD2F2
:1020C000DFE801F00508141E171E1E1E1A00FFF798
:1020D000A3F901E0FFF7B0F90146D4F80400490084
:1020E00001EB5001B1FBF0F082B20AE029496068CF
:1020F000F6E7FFF7B1F9EFE760684FF48031EFE7FB
:102100000125216822F00F00C2F342021043C8608B
:1021100028E0092925D2DFE801F005080B24102466
:1021200024241C00FFF778F909E0FFF785F906E0A1
:102130006168194A02EB51020EE0FFF78DF9014682
:10214000D4E9002001EB5001B1FBF0F080B2D06087
:1021500008E0616809EB5102B2FBF1F189B2C1609C
:1021600000E001252846BDE8F0870000F369FFEF95
:1021700000100140903802400044004000480040F8
:10218000004C004000500040001401400078004026
:10219000007C00400048E8010024F4002DE9F041F3
:1021A000984617460E460446069D1DE0681C1BD047
:1021B0002DB1FEF7B5FCA0EB0800A84214D32168AE
:1021C000202000220B6823F4D0730B6021688B68F9
:1021D00023F001038B6084F8690084F86A0003200F
:1021E00084F86820BDE8F0812068C06936EA000004
:1021F00004D00020B842D9D00020F3E70120F9E74D
:10220000FEE700000FB4054B10B503A9044A02987D
:1022100000F0DCF810BC5DF814FB0000FD2A01089A
:1022200094000020090700284FEA116104DB00F147
:10223000E02080F80014704700F00F0000F1E0206B
:1022400080F8141D704700002DE9FF5F82B0002167
:10225000DDE90430020DDDF840B0034318D044F648
:102260001050A2F2FF3242431514119801281FD0DA
:10227000A5EB0B00401C5FEA000A4FF000064E4F32
:10228000DFF83891B046504615D5CAF1000413E086
:10229000119801244AA3012801D16FEA0B01029889
:1022A000119AC0E90031C0E9024206B0BDE8F09FD2
:1022B000CBF10000DFE704460021404A491842EB19
:1022C0000450CDE9001012E0E00707D032463B464B
:1022D00040464946FEF7B8F88046894632463B46B6
:1022E00010461946FEF7B0F806460F466410002C5B
:1022F000EAD1DDE90401DDE90023BAF1000F06DAD5
:10230000FEF7A2F842464B46FEF79EF805E0FEF7C0
:102310000DF942464B46FEF709F904460E460022E7
:10232000284BFEF773F903D84FF0FF30014607E062
:102330000022254B20463146FDF7DFFFFDF743FF26
:10234000102409E0002C0ADB0A220023FDF7C8FE56
:10235000039B30321A55641E50EA0102F2D1641C0C
:10236000039AC4F111031444119A012A03D00122E3
:1023700008430DD10AE0084304D000204FF0110BB0
:10238000119072E7A3EB0B056D1E0DE05B4504DDBC
:102390004FF0000205F1010504E003DA4FF00002FE
:1023A000A5F10105002AECD002981199C0E902318B
:1023B000C0E9004579E70000000014400000F03F4C
:1023C000300000000000F0430000E03F2DE9FF4F27
:1023D00095B09B468946064600250FE2252877D111
:1023E00000242746F84A0121059400E0044316F82A
:1023F000013F203B01FA03F01042F7D130782A2840
:1024000011D06FF02F033078A0F13002092A16D8CE
:10241000059A44F0020402EB820203EB42021044EC
:10242000761C0590EFE759F8042B0592002A03DA91
:10243000504244F40054059044F00204761C307875
:102440002E2816D116F8010F44F004042A280DD0C6
:102450006FF02F023078A0F13003092B09D807EB79
:10246000870302EB4303C718761CF3E759F8047B94
:10247000761C30786C280FD006DC4C2817D06828E2
:102480000DD06A2814D104E0742810D07A280FD116
:102490000DE044F400140AE044F4801401E044F434
:1024A00040147278824202D104F58014761C761CA6
:1024B000307866280BD013DC582877D009DC002848
:1024C00075D04528F6D04628F4D047281AD19DE18A
:1024D00018E0632835D0642879D0652812D195E1B9
:1024E000702873D008DC6728F1D069286FD06E2877
:1024F0000DD06F2806D1B5E073282CD0752875D083
:10250000782874D05A46179990476D1C75E1C4F32A
:102510000250022809D003280DD0D9F80010042851
:102520000DD00D6009F1040967E1D9F80010EA1730
:10253000C1E90052F6E7D9F800100D80F2E70D70FE
:10254000F0E719F8041B8DF8001000208DF8010049
:10255000EA46012003E059F804AB4FF0FF30610771
:102560004FF0000102D40DE008F101018846B942A4
:102570000FDA8045F8DB1AF808100029F4D108E0DA
:1025800008F1010188468142FADB1AF80810002997
:10259000F6D105985B46A0EB080721463846179A06
:1025A00000F094FA284400EB080507E04DE029E12B
:1025B0000DE01AF8010B5A4617999047B8F1010837
:1025C000F7D25B4621463846179A13E142E00A22C9
:1025D0000092C4F302524FF0000A022A08D059F8C0
:1025E00004CB032A4FEAEC710AD00DE029E02AE07F
:1025F00009F1070121F00702F2E802C1914609E062
:102600000FFA8CFC4FEAEC71042A03D14FFA8CFCD0
:102610004FEAEC71002907DA0A460021DCF1000CD0
:1026200061EB02012D2202E0220504D52B228DF858
:102630000420012203E0E20701D02022F7E79046C0
:1026400059E00A2102E010220DE010214FF0000AAB
:1026500000910BE010224FF0000A44F00404082718
:10266000009203E008224FF0000A0092C4F30252E5
:10267000022A05D059F804CB0021032A08D009E02A
:1026800009F1070121F00702F2E802C1914605E0D5
:102690001FFA8CFC042A01D10CF0FF0C4FF000084B
:1026A000220728D5702806D0009B83F0100353EA38
:1026B0000A0305D00EE040228DF80420012208E034
:1026C0005CEA010206D030228DF804208DF8050066
:1026D00002229046009B83F0080353EA0A030AD1C2
:1026E0005CEA010201D1620705D530228DF8042091
:1026F0004FF001087F1E582804D034A003900EA884
:1027000002900DE036A0F9E753466046009AFDF7C7
:10271000E7FC84460398825C0298401E0290027097
:102720005CEA0100F0D1029806A9081A00F1200A1B
:10273000600702D524F4803400E00127574502DD0C
:10274000A7EB0A0000E0002000EB0A0100900598CA
:102750004144401A0590E00306D45B462146179A8F
:10276000059800F0B3F90544002706E001A85A4691
:10277000C05D179990476D1C7F1C4745F6DBE00351
:102780000CD55B462146179A059800F09FF9054441
:1027900004E030205A46179990476D1C0099481E56
:1027A00000900029F5DC08E0029802995A4600786A
:1027B000491C0291179990476D1CBAF10001AAF1CA
:1027C000010AF1DC65E100000928010030313233F3
:1027D000343536373839616263646566000000005D
:1027E0003031323334353637383941424344454647
:1027F0000000000000F058F90544761C30780028ED
:102800007FF4ECAD19B02846BDE8F08F620700D424
:10281000062709F1070222F0070CFCE80223E14633
:1028200003F000485FEA080C02D00FF2702C0DE0B4
:102830005FEA045C02D50FF2682C07E05FEAC47C13
:1028400002D00FF2602C01E0AFF2700C4FF0FF38B5
:1028500023F00043CDF850C065280CD006DC452895
:1028600009D046281DD047283DD13DE0662818D024
:1028700067287ED138E00021112F01DB112000E014
:10288000781CCDE9000106A90EA8FFF7DDFCDDE903
:102890000F010E9A03910021009207F1010A0491A1
:1028A0004DE04FF000400097CDE9011006A90EA8B9
:1028B000FFF7CAFCDDE90F0203920E9B119900227B
:1028C000DDF80CA00093049211B9791C00EB010A09
:1028D000B7EB0A0004D4C0F1FF3007F1010A0490FD
:1028E000AAEB0700019044E0012F00DA0127002144
:1028F000112F01DD112000E03846CDE9000106A9C5
:102900000EA8FFF7A1FCDDE90F010E9A039100214B
:1029100004910092BA4621070CD40399514500DA7C
:102920008A46BAF1010F05DD009AAAF10101515C56
:10293000302908D0B84202DA10F1040F06DA01217A
:10294000CDE9011015E0AAF10101E9E7002805DC55
:10295000049901440491AAEB000102E0411C514595
:1029600000DD8A460499401A401C01904FF0004057
:102970000290200704D40198504501DBCDF8048073
:1029800000208DF84F0002980DF14F07B0F1004F75
:1029900025D02B200E9002984FF0020800280CDA68
:1029A000404202902D200E9007E00A210298FDF788
:1029B00022FC3031029007F8011DB8F10001A8F1A6
:1029C0000108F2DC02980028EFD1791E0E980870F9
:1029D000307800F0200040F0450007F8020D12A802
:1029E000C01B00F107081498007800B1012000EB2B
:1029F0000A01019801EBE07105984144401A401E1C
:102A00000590E00306D45B462146179A059800F02E
:102A10005DF805441498007818B15A461799904704
:102A20006D1CE00324D55B462146179A059800F0FB
:102A30004DF805441CE00498002807DBDDE903019C
:102A4000884203DD0098405C179901E01799302017
:102A50005A469047049805F10105401C04900198DE
:102A6000401E019004D12E205A46179990476D1CA4
:102A7000BAF10001AAF1010ADDDC05E017F8010B4B
:102A80005A46179990476D1CB8F10001A8F101084A
:102A9000F4DC5B462146179A0598ABE62D00000052
:102AA0002B000000200000002DE9F0410446002525
:102AB0001E461746880404D405E039462020B04756
:102AC0006D1C641EF9D52846BDE8F0812DE9F04162
:102AD000044600251E469046C80301D5302700E075
:102AE0002027880404D505E041463846B0476D1CD0
:102AF000641EF9D52846BDE8F081000013B547F201
:102B000030540548012223466946FFF725F800287E
:102B1000F7D100981CBD0000A0990120EFF30580BB
:102B2000002800D0012070471FB5FEF78BF8002465
:102B30008DF80F4001258DF80E5012218DF80810E8
:102B400003228DF80B2037488DF800508DF80D507A
:102B50008DF80A40019068468DF801408DF80940D3
:102B60008DF80C40FEF740F80420FEF779F8FDF7E9
:102B7000EDFDFDF7E3FFFFF799F8FFF74BF80120B4
:102B8000FDF76EFD0020FDF76BFD01210020FDF734
:102B900095FD2649244808600846FEF72DFE78B9C1
:102BA00022487F222249FF232038E0E8021480E8EF
:102BB0001C00C46004611D482038FEF749FE08B1BE
:102BC000FDF74BFEFDF700FE00220221052000F07C
:102BD000BDFD18498860C0B119486423C822CDE9F9
:102BE000005415A101F02EF8C8231548CDE9005472
:102BF00014A11A4601F026F81148C822CDE9005464
:102C00004FF4C87311A101F01DF80220CDE90004B2
:102C1000134800234FF4FA720EA101F013F800F0EC
:102C200021F8CDE700000220000806509499012009
:102C3000002800408400002053656E6465723100F6
:102C40002934010853656E646572320053656E6401
:102C50006572330052656365697665720000000035
:102C60004134010810B500F095FC002010BD0000B3
:102C700038B5002405460094FFF750FF90B169462F
:102C8000284600F051FF012801D0FF2038BD0098F0
:102C900088B10A494FF080500860BFF34F8FBFF3EF
:102CA0006F8F08E0002328461A46194600F084FE7C
:102CB000012800D0FF24204638BD000004ED00E0CC
:102CC00010B500F0EBFF012803D0BDE8104000F084
:102CD00025BD10BD70B5124C0546E6682068001D84
:102CE00000F0B4FA38B922680121206992F82C204A
:102CF00091408843206120683544B5424560216891
:102D000005D2A06B091DBDE8704000F0BFBA606B32
:102D1000091D00F0BBFAA06A854200D2A56270BD11
:102D2000240000202DE9F041054600F0D3FA2C4C98
:102D30002C4FA068401CA060206810B1606920B3CF
:102D400029E02560A068012825D1002606EB860031
:102D500007EB800000F08CFA761C072EF6D3214892
:102D60008C3000F085FA1F48A03000F081FA1D4831
:102D7000B43000F07DFA1B48C83000F079FA1948E9
:102D80008C3060631430A06305E0E86A2168C96A8A
:102D9000814200D825600121606A401C606268643D
:102DA000E86A226981401143216100EB8000291DFE
:102DB00007EB800000F082FA00F0B0FA60690028AA
:102DC0000CD02068E96AC06A884207D206494FF0F1
:102DD00080500860BFF34F8FBFF36F8FBDE8F08165
:102DE000240000209800002004ED00E070B5114E92
:102DF000114C17E000F006FC3068B8B101F052F851
:102E000000F068FAF068C568281D00F01FFAA06895
:102E1000401EA0606068401E606000F07FFA284697
:102E200000F055F860680028E4D170BD01F03AF870
:102E3000F8E70000600100202400002030B4026C9C
:102E40000B46002A0BD0C16844681144C160A142FE
:102E500001D30168C160184630BCFDF782B930BCAF
:102E600070472DE9F041856B1746026C0446002639
:102E700082B1C7B1E068FDF774F9E168206C22689F
:102E8000091AE160914202D26168081AE060022FDB
:102E900016D017E02068A8B9606800F073FF0646F6
:102EA000002060600EE0A068FDF75BF9D4E9011036
:102EB000226C1044A060884204D32068A06001E026
:102EC00005B16D1E6D1CA5633046BDE8F08110B5DF
:102ED0000446006B00F038FA2046BDE8104000F0D0
:102EE00033BA000011484FF4CC3110B5420706D078
:102EF0000E49C01D20F00700411AC1F5CC310C4C21
:102F0000002301440839A4F1100221F00701C4E9AB
:102F100000030C1A11604B600B60C0E90014946050
:102F20004FF000415460D16010BD000074010020DA
:102F30007C000020074C4FF08056074DFFF756FFEE
:102F400020680128FAD92E60BFF34F8FBFF36F8F2F
:102F5000F4E700009800002004ED00E02DE9F047C0
:102F60000E46994691001746DDE90984089DA52281
:102F70008246206BFDF715F9206B6FF0030101EB22
:102F80008701084420F00707780709D072B650205F
:102F900080F31188BFF34F8FBFF36F8F62B6FEE7E8
:102FA0002218315C82F83410315C11B1401C1028B9
:102FB000F6D3002684F84360072D00D30625E5628A
:102FC000201DC4E9135600F05EF904F1180000F06A
:102FD0005AF96665C5F10700A06184F858604A4651
:102FE000246151463846646200F018F9B8F1000FC8
:102FF000206001D0C8F80040BDE8F08730B5114925
:1030000000E011460A688242FBD34B685C18844298
:1030100003D14468084623444B6043681D18954219
:1030200009D1084C103C2468A24209D052681A44C5
:1030300042600A6812680260814200D0086030BDB8
:103040000460F9E77C00002010B5044600F042F966
:10305000A06B28B15FF0000400F060F9204610BDBD
:103060000124F9E70648416B096829B1416BC96839
:10307000C9684968816270474FF0FF31FAE7000084
:10308000240000200A484068401C72B64FF05000EF
:1030900080F3118805D0BFF34F8FBFF36F8F62B6F7
:1030A000FEE7BFF34F8FBFF36F8F62B6FEE70000FE
:1030B000600000202DE9F041044600F00BF994F97E
:1030C000455004F1240609E0606A48B1304600F03A
:1030D000ADFE08B100F0E6F96D1E6DB2002DF3DC17
:1030E0004FF0FF3684F8456000F018F900F0F2F870
:1030F00094F9445004F1100709E0206948B13846BA
:1031000000F094FE08B100F0CDF96D1E6DB2002DF7
:10311000F3DC84F84460BDE8F04100F0FFB8000043
:103120002DE9F0410027044600F06CFA344E306877
:1031300008B9FFF7D7FEF06804424FD1E4B3083472
:10314000600710D004F00700C0F1080004446007D5
:1031500009D072B6502080F31188BFF34F8FBFF3B0
:103160006F8F62B6FEE73CB37068844236D824485D
:10317000103001460D6801E028460D466968A142FD
:1031800002D229680029F7D131688D4226D007681C
:103190002968016008376868011B102911D92819AE
:1031A00042070AD072B6502080F31188BFF34F8FC8
:1031B000BFF36F8F62B6FEE710E041606C60FFF70F
:1031C0001DFF69687068401A7060B268904200D252
:1031D000B0600020F2681143C5E9000100F062FE12
:1031E000780709D072B6502080F31188BFF34F8F53
:1031F000BFF36F8F62B6FEE73846BDE8F08100008E
:103200006C0000200449086818B10868026D521C5F
:1032100002650868704700002400002070B5041F94
:10322000094E231F4FF0807521F0010125601C1FFE
:103230001960A0F120010B1F266044380A606FF06E
:1032400002051D6070BD000085300108D0E9013223
:1032500001699A60D0E901235A604A68824201D12B
:1032600082684A60002202610868401E0860704758
:1032700000F108014FF0FF330022C0E90021C0E94E
:1032800002310161704700210161704730B50B6860
:103290005A1C02D000F1080202E0026904E0224652
:1032A000546825689D42FAD953684B6099608A60DA
:1032B000516008610168491C016030BD42684A6084
:1032C00093688B6093685960916008610168491C3C
:1032D0000160704772B6502080F31188BFF34F8FA2
:1032E000BFF36F8F0B4962B64868401C48600128E5
:1032F0000ED10948006810F0FF0F09D072B65020B7
:1033000080F31188BFF34F8FBFF36F8F62B6FEE774
:10331000704700006000002004ED00E009494868A3
:1033200028B1401E486001D180F31188704772B601
:10333000502080F31188BFF34F8FBFF36F8F62B6B9
:10334000FEE700006000002070B500282BD0164D6D
:10335000A0F108046068E968084209D172B65020FB
:1033600080F31188BFF34F8FBFF36F8F62B6FEE714
:1033700022684AB172B6502080F31188BFF34F8F94
:10338000BFF36F8F62B6FEE78843606000F03AF9E2
:1033900060686968084468602046FFF72FFEBDE852
:1033A000704000F07FBD70BD6C00002006484FF4F7
:1033B0007A73072201684FF0E020B1FBF3F1491E58
:1033C00041610261704700000000002010B5FCF769
:1033D00071FE1349102810D300F1E0200A7890F80C
:1033E000F003904209D272B6502080F31188BFF3E7
:1033F0004F8FBFF36F8F62B6FEE70A488968006897
:1034000000F4E060884209D972B6502080F3118838
:10341000BFF34F8FBFF36F8F62B6FEE710BD0000A2
:10342000600000200CED00E0044C00231A46211D32
:10343000A080A06800F0C0FAFEE700008400002031
:10344000074C002306493222891CA06800F0AAF923
:1034500008B104A000E00AA0FEF7D4FEF1E70000E6
:10346000840000206461746120726563697665641C
:103470002066726F6D2074686520717565756500D2
:103480006661696C656420746F2072656365697636
:10349000652066726F6D207468652071756575654D
:1034A0000000000001490120C8617047240000208D
:1034B00010B50C4650B10A4909681831FFF7E6FE0D
:1034C0002046BDE810400121FFF704BC72B6502031
:1034D00080F31188BFF34F8FBFF36F8F62B6FEE7A3
:1034E0002400002070B5002804463AD01D4DE06A43
:1034F0002968C96A884234D2A069002804DB286898
:10350000C06AC0F10700A061E16A174E606901EB73
:10351000810106EB8101884220D1201DFFF796FE34
:103520004FF0010150B9E06A00EB800256F822200A
:1035300022B92A6901FA00F082432A612868C06A28
:10354000E0622A6981401143296100EB8000211D5E
:1035500006EB8000BDE87040FFF7B0BE2868C06A87
:10356000E06270BD240000209800002028B10849C6
:103570000A6A0260C9684160704772B6502080F3E1
:103580001188BFF34F8FBFF36F8F62B6FEE7000065
:1035900024000020174818A11CB5002480222346CF
:1035A000CDE90040164800F04DFB01280BD0401C2F
:1035B0001ED172B6502080F31188BFF34F8FBFF336
:1035C0006F8F62B6FEE7502072B680F31188BFF3AA
:1035D0004F8FBFF36F8F62B606484FF0FF322C3823
:1035E000012182624161C460BDE81C4000F042B824
:1035F0001CBD00005000002049444C450000000064
:10360000352F01080248016B491C01637047000017
:10361000240000201548016B11B10121C1617047E0
:103620000021C16112490269B2FA82F2C2F11F029D
:1036300002EB820251F822306BB101EB820101F101
:1036400008034A6852684A609A4201D152684A6047
:10365000D1680160704772B6502080F31188BFF3C3
:103660004F8FBFF36F8F62B6FEE70000240000208B
:10367000980000202549FF201CB50A7801920870A7
:1036800008788DF800009DF800209DF8000002F0F9
:10369000F002824209D072B6502080F31188BFF345
:1036A0004F8FBFF36F8F62B6FEE79DF800200720B3
:1036B000174C02F050022270A06005E09DF8002037
:1036C00052008DF80020401E9DF800201206F5D40F
:1036D000000200F4E060A060019808700D480168E5
:1036E00041F470010160016841F070410160FFF731
:1036F0005DFE00206060FCF7A3FC0748016841F014
:1037000040410160FCF78CFC00201CBD00E400E09F
:103710006000002020ED00E034EF00E072B65020A1
:1037200010B580F31188BFF34F8FBFF36F8F62B670
:1037300000F0C2FA18B104494FF080500860002030
:1037400080F3118810BD000004ED00E02DE9F04188
:10375000050017460E4616D0FEB105FB06F05030A8
:10376000FFF7DEFC04000CD004F15000BEB1206075
:103770000121C4E90F56204600F0D2F8204684F813
:103780004C70BDE8F08172B6502080F31188BFF311
:103790004F8FBFF36F8F62B6FEE70020DFE7246034
:1037A000E6E700002DE9FF4F04009B4683B08A4600
:1037B0004FF0000703D0BAF1000F0AD015E072B63F
:1037C000502080F31188BFF34F8FBFF36F8F62B625
:1037D000FEE7206C48B172B6502080F31188BFF329
:1037E0004F8FBFF36F8F62B6FEE700F057FADFF836
:1037F0002C814FF080564FF0000958B9059848B118
:1038000072B6502080F31188BFF34F8FBFF36F8FD4
:1038100062B6FEE7FFF75EFDA56B4DB3E768514664
:103820002046FFF70BFBBBF1000F14D0606AE76086
:1038300058B104F1240000BF00F0F8FA28B1C8F82C
:103840000060BFF34F8FBFF36F8FFFF767FD01205D
:1038500007B0BDE8F08F20686D1EA56310B9FFF7B3
:10386000D1FC606020690028EFD004F11000E3E78C
:10387000059808B11FB106E0FFF750FD27E0684644
:10388000FFF774FE0127FFF749FDFFF7BBFEFFF7C7
:1038900021FD94F94400401C01D184F8449094F92E
:1038A0004500401C01D184F84590FFF737FD05A97C
:1038B000684600F08FF9002820460AD0FFF7FAFB8F
:1038C00000F0F0FA2046FFF7BFFB0028A2D000204E
:1038D000BEE7FFF7B9FBD8B1206830B9FFF7FAFCB3
:1038E0006068FFF7FFFDFFF719FD059904F124005B
:1038F000FFF7DEFD2046FFF7DDFB00F0D3FA0028DE
:1039000088D1C8F80060BFF34F8FBFF36F8F81E796
:103910002046FFF7CFFB00F0C5FA7BE704ED00E09F
:103920002DE9F04704008A4629D0FFF7D3FC21682F
:103930000025D4E90F23D4F840C004F11008104644
:103940000E46401E4FF0FF3902FB031200FB0C1025
:10395000BAF1000FA563A66084F8449084F84590FE
:103960006260E06015D04046FFF782FC04F124005D
:10397000FFF77EFCFFF7D2FC0120BDE8F08772B6AE
:10398000502080F31188BFF34F8FBFF36F8F62B663
:10399000FEE720690028EDD0404600F047FA0028F5
:1039A000E8D004494FF080500860BFF34F8FBFF359
:1039B0006F8FDFE704ED00E02DE9FF4704001D46AF
:1039C00082B08A464FF0000803D0BAF1000F0AD047
:1039D00015E072B6502080F31188BFF34F8FBFF30C
:1039E0006F8F62B6FEE7206C48B172B6502080F34C
:1039F0001188BFF34F8FBFF36F8F62B6FEE7022DC2
:103A00000CD1E06B012809D072B6502080F31188E8
:103A1000BFF34F8FBFF36F8F62B6FEE700F03EF942
:103A2000404F4FF080564FF0000958B9049848B104
:103A300072B6502080F31188BFF34F8FBFF36F8FA2
:103A400062B6FEE7FFF746FCA06BE16B884207D346
:103A5000022D05D00498D0B1B8F1000F1AD01EE0A5
:103A60002A4651462046FFF7FCF9616A19B104F174
:103A7000240000F0DBF920B13E60BFF34F8FBFF3AD
:103A80006F8FFFF74BFC012006B0BDE8F087FFF712
:103A900045FC22E06846FFF769FD4FF00108FFF79B
:103AA0003DFCFFF7AFFDFFF715FC94F94400401C07
:103AB00001D184F8449094F94500401C01D184F868
:103AC0004590FFF72BFC04A9684600F083F830B15D
:103AD0002046FFF7EFFA00F0E5F90020D4E7FFF702
:103AE000F9FBA06BE16B884213D1FFF717FC049937
:103AF00004F11000FFF7DCFC2046FFF7DBFA00F0D2
:103B0000D1F900289ED13E60BFF34F8FBFF36F8F76
:103B100098E7FFF703FC2046FFF7CCFA00F0C2F964
:103B200090E7000004ED00E070B504000E460BD0F5
:103B3000206C98B172B6502080F31188BFF34F8F7C
:103B4000BFF36F8F62B6FEE772B6502080F3118824
:103B5000BFF34F8FBFF36F8F62B6FEE7206858B98F
:103B6000606848B172B6502080F31188BFF34F8F60
:103B7000BFF36F8F62B6FEE7FFF728FC72B65020E6
:103B8000EFF3118580F31188BFF34F8FBFF36F8F71
:103B900062B6D4E90E10884218D994F94500491C40
:103BA000A163411C04D0401C84F8450001200EE0B4
:103BB000606A0028FAD004F1240000F037F90028E8
:103BC000F4D0002EF2D001203060EFE7002085F322
:103BD000118870BD70B504000D4617D005B3FFF70E
:103BE00079FB17492268C868096A8A4202D061686D
:103BF00081421FD962682968801A88421AD2081A3D
:103C000028602046FFF7B2FC002414E072B6502072
:103C100080F31188BFF34F8FBFF36F8F62B6FEE75B
:103C200072B6502080F31188BFF34F8FBFF36F8FB0
:103C300062B6FEE70124FFF771FB204670BD00006D
:103C4000240000202DE9FF5F994616468A468346E8
:103C50009000DDE90E87FFF763FA05001AD05C20BB
:103C6000FFF75EFA040012D000212563CDE900873A
:103C70004B463246CDE9024151465846FFF76EF9B0
:103C80002046FFF74FF8012004B0BDE8F09F28461A
:103C9000FFF75AFB4FF0FF30F6E700000548416997
:103CA00019B1006B18B10020704701207047022045
:103CB00070470000240000202DE9F0412F4C206BBC
:103CC000002740B1A069401CA061E06900B1012754
:103CD0003846BDE8F081E668761CE66015D1606B79
:103CE000006848B172B6502080F31188BFF34F8F3F
:103CF000BFF36F8F62B6FEE7606BA16B6163A06379
:103D0000206A401C2062FFF7ADF9DFF87480A06ADA
:103D1000864209D3606B006880B1606BC068C5687B
:103D2000686886420DD2A0622068C06A00EB8001FC
:103D300058F821000128C8D90127C6E74FF0FF3005
:103D4000F1E7281DFFF782FAA86A18B105F11800FB
:103D5000FFF77CFAE86A0121226981401143216161
:103D600000EB800108EB8100291DFFF7A7FA20680E
:103D7000E96AC06A8142CDD30127CBE72400002045
:103D80009800002070B504464FF00001F0B3254DB7
:103D90002868844209D072B6502080F31188BFF39E
:103DA0004F8FBFF36F8F62B6FEE7206D38B1E36CC3
:103DB000401EE26A20659A4231D050B12FE072B6BF
:103DC000502080F31188BFF34F8FBFF36F8F62B61F
:103DD000FEE7201DFFF73AFA134900284FF00100D3
:103DE0000AD1E26A02EB820351F8233023B92B692E
:103DF00000FA02F293432B61E26CC2F10703A36164
:103E0000E2622B6990401843286100E007E002EB72
:103E1000820001EB8000211DFFF750FA01210846C6
:103E200070BD000024000020980000202DE9F04122
:103E3000C068C468ACB104F118000746FFF706FA81
:103E4000164D0126286BB0B115483946FFF736FAF2
:103E5000E06A2968C96A88421ED90120EE61BDE87E
:103E6000F08172B6502080F31188BFF34F8FBFF3FB
:103E70006F8F62B6FEE7201DFFF7E8F9E06A2A6956
:103E800006FA00F111432961054900EB8000B439BD
:103E900001EB8000211DD9E70020E0E7240000208D
:103EA0004C0100202DE9F0472D4D286B00242646BB
:103EB00038B1FFF70FFA286B401E2863286B50B10A
:103EC00049E072B6502080F31188BFF34F8FBFF3E3
:103ED0006F8F62B6FEE7234F0120A968D9B3A7F11F
:103EE000B40980463868E8B1F868C46804F118007D
:103EF000FFF7ACF9201DFFF7A9F9E16A2A6908FA72
:103F000001F01043286101EB810109EB8100211DC3
:103F1000FFF7D4F92968E06AC96A8842E2D3C5F894
:103F20001C80DFE70CB1FFF79DF8AC6944B1474650
:103F3000FFF7C2FE00B1EF61641EF9D10020A86155
:103F4000E86940B1084901264FF080500860BFF38E
:103F50004F8FBFF36F8FFFF7E1F93046BDE8F08771
:103F6000240000204C01002004ED00E000000000CF
:103F70000000000001020304060708090000000019
:103F800001020304010006000024F40000000240C6
:103F90000020000020000000002402400024024015
:103FA0000100000010000000000000000000000000
:103FB0000000000000000000000000000000000001
:103FC00000000000000000000000000000000000F1
:103FD00000000000000000000000000000000000E1
:103FE000000000000000000000000000AAAAAAAA29
:103FF00000000000000000000000000000000000C1
:1040000000000000000000000000000000000000B0
:1040100000000000000000000000000000000000A0
:04000005080001F9F5
:00000001FF
