:020000040800F2
:10000000A8270220BD00010845150208B7BE010857
:10001000210C0208F7380108F7620208000000000E
:1000200000000000000000000000000001000108C6
:10003000057701080000000055000108A55A0208D4
:10004000D7000108D7000108D7000108D700010830
:10005000D7000108D700010891950108D7000108D1
:10006000D7000108D7000108D7000108D700010810
:10007000D7000108D7000108D7000108D700010800
:10008000D7000108D7000108D7000108D7000108F0
:10009000D7000108D7000108D7000108D7000108E0
:1000A000D7000108D7000108D7000108D7000108D0
:1000B000D7000108D7000108D7000108D7000108C0
:1000C000D7000108D7000108D7000108D7000108B0
:1000D000D7000108D7000108D7000108D7000108A0
:1000E000D7000108D7000108D7000108D700010890
:1000F000D7000108D7000108D7000108D700010880
:10010000D7000108D7000108D7000108D70001086F
:10011000D7000108D7000108615B0208D700010879
:10012000D7000108D7000108D7000108D70001084F
:10013000D70001084D940108D7000108D700010835
:10014000D7000108D7000108D7000108D70001082F
:10015000D7000108D7000108D7000108D70001081F
:10016000D7000108D7000108D7000108D70001080F
:10017000D7000108D7000108D700010800000000DF
:10018000D7000108D7000108D7000108D7000108EF
:10019000D7000108D7000108D7000108D7000108DF
:1001A000D7000108D7000108D7000108D7000108CF
:1001B000D7000108D7000108D7000108D7000108BF
:1001C000D7000108D7000108D7000108D7000108AF
:1001D000D7000108D7000108D7000108D70001089F
:1001E000D7000108D7000108D7000108D70001088F
:1001F000D7000108D7000108DFF80CD000F006F89E
:100200000048004791550308A8270220064C074DD7
:1002100006E0E06840F0010394E8070098471034D6
:10022000AC42F6D3FFF7ECFF500200087002000862
:1002300002E008C8121F08C1002AFAD170477047AF
:10024000002001E001C1121F002AFBD1704700000D
:10025000E09006080000002018060000B41A01080B
:100260004094060818060020808904004002000817
:020000040801F1
:100000002B4B19680868B0E8F04F80F30988BFF3FC
:100010006F8F4FF0000080F31188704700000000E0
:1000200006480068006880F3088862B661B6BFF3CE
:100030004F8FBFF36F8F00DF00BF00BF08ED00E000
:10004000DFF80C00016841F470010160704700BFE7
:1000500088ED00E0EFF30980BFF36F8F144B1A684F
:100060001EF0100F08BF20ED108A20E9F04F10603D
:1000700008B44FF0500072B680F31188BFF34F8F71
:10008000BFF36F8F62B648F057FB4FF0000080F36C
:10009000118808BC19680868B0E8F04F1EF0100F0E
:1000A00008BFB0EC108A80F30988BFF36F8F7047E8
:1000B00084050020EFF30580704700000648804764
:1000C00006480047FEE7FEE7FEE7FEE7FEE7FEE73D
:1000D000FEE7FEE7FEE7FEE70D5B0208F901000818
:1000E0002DE9F05F0546002092469B46884606466D
:1000F000814640241BE0284641464746224600F000
:1001000020F853465A46C01A914110D3114618465A
:10011000224600F026FD2D1A67EB01084F462246C5
:100120000120002100F01DFD17EB00094E41201EAB
:10013000A4F10104DFDC484631462A464346BDE8C7
:10014000F09F202A04DB203A21FA02F000217047B8
:1001500021FA02F3D040C2F120029140084319462F
:100160007047000000487047BC3A060810B50446C6
:10017000FFF7F8FF0068005D00F0010010BD00000F
:100180000649074A0868504343F2390210440860A0
:1001900040087047014908607047000008060020C9
:1001A0006D4EC64138B5D0E90221491E01EB41012F
:1001B00002EBC1014268C1EB011102EB810102684F
:1001C000C1EB011102EB8102D0E9043101EB4101E5
:1001D00003EB81013023A1F5527191FBF3F4174D2C
:1001E0006C4302EBC41291FBF3F403FB1411009275
:1001F0001A2902DB124B1A4400920C2291FBF2F3F3
:10020000104C6343009C04EBC313009391FBF2F387
:1002100002FB13110C4A08E0491E40F2A324535C70
:100220006343009C04EBC31300930029F4DC0146F4
:10023000684600F0ABFC009838BD00003F0C0F0092
:100240008051010067C20300C03A060870B5054638
:1002500001B90721541A241DB4F5B67F09DD2868B9
:1002600000F036F9A04204DC2868401C2860012018
:1002700070BD002C05DA2868401E286000F028F9BF
:100280000444072094FBF0F0401C70BD2DE9F04FB2
:1002900089B01D468A468046002401AF4FF0070B07
:1002A0000192079057F8241011F8010B47F8241019
:1002B00048B125280DD0BAF1010F06D908F8010B75
:1002C000AAF1010A5CE0641E5AE0002009B0BDE812
:1002D000F08F11F8010B47F824100028F3D0022604
:1002E0004FF030095A284BD020DC4D2873D014DC55
:1002F000442871D008DC2528DDD041282AD04228A6
:100300002ED043283CD130E0462847D0472857D04C
:10031000482862D0492833D161E0523808282FD2CA
:10032000DFE800F0787AA6838A97A6A861381928B2
:1003300026D2DFE800F00D1318202E253513255C9A
:10034000252560642566256D257375258B9BA0008A
:100350006AA000E070A0A9690091B4E07DA000E06F
:1003600088482969F8E788A007E06969642091FB5B
:10037000F0F0133082E0E86880E0641C47F8240065
:10038000002C8FDA002088F800000799A8EB010004
:100390009CE7E8684FF02009009070E07EA0ECE751
:1003A000686900F26C700090D5E906126846FFF7A4
:1003B0004DFF0099642091FBF0F200FB12105DE00C
:1003C0006869042600F26C700090D5E90612684650
:1003D000FFF73CFF53E010E048E0A8684EE0A86853
:1003E0000C21173090FBF1F201FB120001E0E869EB
:1003F0000326401C42E02869FBE768683EE069A0EC
:10040000BBE7A8680C2801DA67A0B6E767A0B4E7E5
:1004100067A0B2E769A0B0E728682FE069A0ACE761
:10042000A869012608BB072028E0D5E90610401A74
:10043000C01D90FBFBF021E0686900F26C70009039
:10044000D5E906126846FFF701FF17E00126A86903
:1004500014E0A9695846891D91FBF0F20BFB1211BB
:10046000EA69511AC91D91FBFBF007E056A084E729
:1004700058A082E70426686900F26C7000900021A1
:100480008DF8181006A80A2113E0009A92FBF1F3E8
:1004900001FB1322303200F8012D009A92FBF1F299
:1004A000009232B901E000F8019D321EA6F101066A
:1004B000F9DC321EA6F10106E7DC5EE710F8011B4D
:1004C0000029FBD100994A1E00920029F6DC54E76E
:1004D00081070CD1642190FBF1F201FB120151B9AB
:1004E0004FF4C87190FBF1F201FB120018B100202B
:1004F00000F26D1070470120FAE7000053756E009E
:100500004D6F6E0054756500576564005468750042
:10051000467269005361740053756E646179004DD1
:100520006F6E646179005475657364617900576515
:10053000646E65736461790054687572736461797F
:1005400000467269646179005361747572646179FF
:10055000000000004A616E00466562004D61720055
:10056000417072004D6179004A756E004A756C00E9
:1005700041756700536570004F6374004E6F7600DD
:1005800044656300CC3A0608256120256220256574
:10059000202554202559000025592D256D2D256431
:1005A000000000000A000000414D0000504D000016
:1005B00025493A254D3A25532025700025483A25EE
:1005C0004D00000009000000256D2F25642F2579BE
:1005D0000000000025483A254D3A25530000000050
:1005E00010B5034606A21A210B48FFF74FFE0A4832
:1005F000017A302901D120210172074810BD000085
:1006000025612025622025642025483A254D3A257C
:10061000532025590A0000005C07022010B500F0A5
:10062000AFFABDE81040FFF7DBBF10B5431A9342A5
:1006300009D28318881803E010F8011D03F8011D82
:10064000521EF9D210BD40EA01039B0703D009E016
:1006500008C9121F08C0042AFAD203E011F8013BAE
:1006600000F8013B521EF9D210BDD2B201E000F8F1
:10067000012B491EFBD270470022F6E710B5134646
:100680000A4604461946FFF7F0FF204610BD30B574
:1006900005462A460B4612F8010B13F8014B08B128
:1006A000A042F8D01CB1002802D06D1CF1E728460A
:1006B00030BD10B5044604E00B7800F8013B03B1EF
:1006C000491C521EF8D2204610BDCAB2401E10F876
:1006D000011F8A4202D00029F9D100207047421C34
:1006E00010F8011B0029FBD1801A704710B50022B9
:1006F00000E0521C835C8C5CA34201D1002BF8D13A
:10070000D8B2E1B2401A10BD30B50446002003460D
:1007100000E05B1C934203D2E05CCD5C401BF8D050
:1007200030BD034611F8012B00F8012B002AF9D146
:100730001846704730B505460020034600E05B1CB4
:10074000934205D2EC5CC85C201A01D1002CF6D192
:1007500030BD10B54843044616F0E2FF002805D02E
:100760000021002C02D0641E0155FAE710BD0000E4
:100770000FB400B58DB010A909900B9000914FF007
:10078000FF300A9000200C9005480690054807901D
:100790006A4609A80F9900F053FA0DB05DF814FBF2
:1007A0005D0C01087B0C01082DE9FF5F1D464FF031
:1007B000FF3BD5E9014691465F464FF00008A96925
:1007C0007F1C01988847296A824688470028F6D10D
:1007D000BAF1FF3F0CD024F4C064002E19DD60068E
:1007E00014D5BAF12B0F09D0BAF12D0F0ED103E0B9
:1007F000584604B0BDE8F09F44F48064A9697F1CAA
:1008000001988847761E8246002E02DDBAF1300F2D
:1008100003D0B9F1000F26D032E0A969761E44F466
:1008200000747F1C019888478246002E05DDBAF1CE
:10083000780F06D0BAF1580F03D0B9F1000F10D0DD
:100840001EE0B9F1000F02D0B9F1100F18D1A9695B
:10085000761E24F400747F1C01988847824610207D
:1008600002E0082000E00A20814609E008FB0908B0
:10087000A969761E44F400747F1C0198884782465B
:10088000002E05DD4946504600F0C6F90028EDDA95
:10089000E96901988847A00502D46FF00100A8E734
:1008A000E00725D1600613D5600502D5C8F1000028
:1008B00000E0404629680A1D2A600968220501D522
:1008C000087015E0220701D5088011E008600FE0EC
:1008D0002868011D29600068210502D580F8008084
:1008E00006E0210702D5A0F8008001E0C0F80080F2
:1008F00038467EE72DE9FF5FD2E901A74FF00008F7
:10090000916999461446DDF838B046460198884703
:10091000054659EA0B0005D009E0A169761C01984B
:1009200088470546216A284688470028F5D1681C73
:1009300003D05FEACA7005D015E04FF0FF3004B075
:10094000BDE8F09F2068011D2160D0F800800AE01A
:100950005FEACA7001D108F8015BA169761C7F1EAD
:10096000019888470546002F1ADD681C18D0B9F198
:10097000000F0DD0E81705EBD060421120F01F00EA
:1009800059F822102A1A012090400142E0D107E0D4
:10099000BBF1000FDCD1216A284688470028D7D058
:1009A000E16901988847BBF1000F07D1002E05DDF2
:1009B0005FEACA7002D1002188F80010A068B8422E
:1009C00003DDBBF1000F03D017B16FF00100B6E7F4
:1009D0003046B4E72DE9F04791460F46804604467D
:1009E000002614F8015B2DB1FFF7BCFB0068405DE9
:1009F000C007F6D12B2D02D02D2D18D0641E4A46EB
:100A00003946204600F04AF927B13968A14201D1A0
:100A1000C7F8008071054FF002040BD54042002852
:100A200003DD16F07FF80460A007BDE8F08746F408
:100A30008066E4E70028F8DA16F074F804606FF0D6
:100A40000040F2E72DE9F05F93460F4680460446EA
:100A5000002616F067F8D0F80090824614F8015B83
:100A60002DB1FFF77FFB0068405DC007F6D12B2D4D
:100A700002D02D2D1AD0641E0021CAF800105A464B
:100A80003946204600F00AF9014627B13868A042ED
:100A900001D1C7F80080DAF80000022809D0CAF8AE
:100AA0000090700505D54842BDE8F09F46F4806689
:100AB000E2E70846F8E700F09CB970B5064616F084
:100AC00031F8046805460A2200213046FFF782FF0C
:100AD0002C6070BD70B5064616F024F80468054613
:100AE0000A2200213046FFF775FF2C6070BD0EB55D
:100AF00040F2334202920022CDE90022134600F078
:100B0000C5F903B000BDC1F30A52C1F3130140F2AD
:100B1000FF3341F480119A4202DA00200146704707
:100B200040F233439A42A2F2334202DC5242FFF7D0
:100B300008BB00F016B830B50B4601460020202255
:100B4000012409E021FA02F59D4205D303FA02F5DA
:100B5000491B04FA02F52844151EA2F10102F1DC3A
:100B600030BD202A04DB203A00FA02F10020704751
:100B70009140C2F1200320FA03F3194390407047DB
:100B8000014900F003B800007807022010B50068A2
:100B90003C22B0FBF2F302FB1303B0FBF2F00B605C
:100BA000B0FBF2F302FB1303B0FBF2F018224B6030
:100BB000B0FBF2F302FB1303B0FBF2F0021D8B60FB
:100BC0000723B2FBF3F403FB1422800040F2B55379
:100BD00000F66C308A61B0FBF3F2B0FBF3F403FB78
:100BE0001400443280084A61C8613B2802D392074E
:100BF00000D0401C0022074C13460A61E25C82428E
:100C000003D8801A5B1C0B61F8E7401CC8600846DB
:100C100010BD0000303B06083A2800D2303820F0E2
:100C20002002412A01D3A2F13700884201D34FF0BC
:100C3000FF3070470268114413780160184670470E
:100C4000D1600449516104491162002111611146CA
:100C500000F034BB350C01086D010108426842B157
:100C6000016811F8013B23B1521EC0E90012184679
:100C700070470121C160881E704742685AB1C3683D
:100C8000016843B983688B4205D0491E521CC0E9F4
:100C90000012002070474FF0FF3070472DE9F05FE1
:100CA00082460078002715468B460AF10104B946B2
:100CB000302801D09DB113E014F8010B01277828EA
:100CC00003D0582801D045B10AE00DB1102D07D14D
:100CD0000027102514F8010B02E0082500E00A2582
:100CE0000026B0460EE005FB080005FB06F10127D3
:100CF00001EB10461FFA80F8B6F5803F00D3B946E5
:100D000014F8010B2946FFF787FF0028EBDABBF147
:100D1000000F05D00FB1641E00E05446CBF8004030
:100D2000B9F1000F06D015F0FDFE02210160C81ECA
:100D3000BDE8F09F48EA0640FAE700000FB4002340
:100D400000B589B00CA900910B996FF00042CB60FF
:100D50001E4B06931E4B07930423CDE901321D4A17
:100D6000089202466B46002000F0D2FC09B05DF804
:100D700014FB70B586B006464FF0FF300091CDE908
:100D80000101002015460C4604903246694604A82D
:100D9000FFF7D4FF02460498211825B108B1084690
:100DA00000E020462860049800280DD0002A02DDCB
:100DB0000098884208D0081B0094CDE9010432460F
:100DC000694604A8FFF7BAFF06B070BD5D0C0108C4
:100DD0007B0C01086D0101087CB50023CDE90033CF
:100DE00005466846FFF7C5FF6946284616F0F8FC39
:100DF0007CBD2DE9F05F93460F46804604460026F1
:100E000015F090FED0F80090824614F8015B2DB1E9
:100E1000FFF7A8F90068405DC007F6D12B2D02D07E
:100E20002D2D1FD0641E0021CAF800105A463946E5
:100E3000204600F089FD024627B13868A04201D162
:100E4000C7F80080DAF8000002280ED0CAF8009037
:100E500070050AD500200346D2EB000063EB0101C8
:100E6000BDE8F09F46F48066DDE71046F8E710B570
:100E7000141E73F1000408DA401C41F100019218BD
:100E80005B411A4301D120F0010010BD2DE9F04D66
:100E900092469B4611B1B1FA81F202E0B0FA80F2BB
:100EA00020329046FFF75DFE04460F4640EA0A00F6
:100EB00041EA0B0153465A46084313D0114653EA00
:100EC000010019D0C8F140025046FFF73AF9054633
:100ED0000E46504659464246FFF743FE084305D0AA
:100EE000012004E020463946BDE8F08D002005438E
:100EF00046EAE0762C4337430A986305E40AA0EB00
:100F000008000022FD0A44EA47540A3002D50020B6
:100F10000146E9E7010510196941DDE908450019B5
:100F20006941BDE8F04DA2E72DE9FE4F804681EA18
:100F30000300C00F0C46009021F0004123F0004553
:100F4000B8EB0200A94105D24046214690461C4616
:100F50000B46024623F00040104347D0270DC7F34D
:100F60000A00C3F30A510290401A019040286BDA3C
:100F7000C3F3130040F4801B0098924620B1002375
:100F8000D2EB030A63EB0B0B01985946C0F1400208
:100F90005046FFF7E6FD06460D4650465946019A73
:100FA00000F07AF910EB08006141002487EA115241
:100FB00084EAE7731A4340D0009A62B3019A012A87
:100FC0004FEA075215DC001B61EB02014FF00042B3
:100FD00002EA0752CDE90042001C41F58011324679
:100FE0002B46FFF753FF03B0BDE8F08F4046214684
:100FF000F9E7001B61EB0201001C41F580130018AA
:101000005B412018A2F5001747EB030140EAD570B9
:10101000B6196D4111E06D084FEA360645EAC07514
:101020004FEA0752001B61EB0201001C41F58011E1
:1010300049084FEA30000019514132462B4603B0AF
:10104000BDE8F04FFFF713BF0098012240000023D6
:10105000D0EB020263EBE073009821464FEAE074A4
:10106000B8EB000061EB0401E9E783F000435BE7C4
:1010700081F0004158E72DE9FE4F81EA030404F0B6
:10108000004421F0004100944FF0000B23F0004396
:1010900050EA01045ED052EA03045BD0C3F30A5461
:1010A000C1F30A552C44A4F2F3340194A0FB02547A
:1010B000C1F3130141F48011C3F3130343F480130C
:1010C00001FB024400FB034E840A970A44EA815460
:1010D00047EA8357A4FB076802958D0A05FB07853D
:1010E0004FEA932C04FB0C542705029D4FEA065847
:1010F00047EA1637B5EB08056EEB070C870E920E24
:1011000047EA811742EA8312A7FB0201B6EB0B0103
:1011100064EB00042B0D43EA0C335E1844EB1C50C7
:10112000DA465146E7FB0201C5F313044FEA0B33DD
:1011300043EA14534FEA0432019C43EA0603A4F144
:101140000C040294009CCDE900B4FFF79FFE03B0AD
:10115000BDE8F08F00200146F9E72DE9F04D81EA66
:10116000030404F0004B21F0004514464FF0000A40
:1011700023F0004150EA050220D054EA01021DD0BC
:10118000C5F30A570246C5F31303C1F31300C1F3B5
:101190000A5640F4801543F48013A7EB0608101B91
:1011A000D64608F2FD3873EB050002D308F10108BA
:1011B00001E092185B41B8F1000F03DA002001460C
:1011C000BDE8F08D00204FF48011064684460EE005
:1011D000171B73EB050705D3121B63EB05030643CF
:1011E0004CEA010C49084FEA300092185B4150EA82
:1011F0000107EDD152EA030012D082EA040083EA2B
:101200000501084305D0101BAB4106D20122002383
:1012100006E000224FF0004302E06FF0010253109D
:101220001AEB06004CEB085110EB0A0041EB0B01E6
:10123000BDE8F04DFFF71BBE70B521F0004303433E
:101240000CD0C1F30A550024D5EB040564EB04036C
:10125000D617AD1AB34102DB0020014670BD20183D
:1012600041EB025170BD000030B5041E71F1000465
:1012700004DB4FF00044404264EB0101141E73F1A3
:10128000000405DB1C464FF00043524263EB0403AD
:10129000994208BF904230BD202A06DBCB17203A86
:1012A00041FA02F043EAE07306E041FA02F3D0406B
:1012B000C2F1200291400843194670472DE9F34FCF
:1012C0008BB04FF0000801F10C000C464FF0010B01
:1012D00046460DF1080A0190626901210198904784
:1012E000051E2DD0252D2CD0216A8847C0B16269FA
:1012F000012101989047216A88470028F7D1411EB3
:1013000062690198904700E0761CA1690B988847B4
:10131000216A88470028F7D1E1690B988847DBE705
:10132000A1690B9888470746A84201D1761CD3E7EC
:10133000E1690B9888477F1C02D1B8F1000F6FD08C
:1013400046E1002762693D463946019890472A28C0
:1013500004D162690121019890470125DFF8849248
:101360006269012101989047A0F130010A290AD24F
:101370004F45E5DC07EB870100EB4107303FDFD449
:1013800045F01005ECE7E90601D46FF000476C2842
:101390000AD04C2814D0682815D06A280DD074289B
:1013A0001CD07A281AD01DE062690121019890476B
:1013B0006C2802D045F0040514E045F002050DE06C
:1013C00045F020050AE062690121019890476828EC
:1013D00002D045F0080505E045F400656269012189
:1013E00001989047C4E9015765283DD019DC582879
:1013F0007AD00CDC452837D004DC252826D04128BB
:1014000031D131E046282FD047282CD12CE05B2861
:1014100077D0612828D063287CD0642823D15AE073
:10142000D0E06F2848D008DC66281DD067281BD084
:10143000692821D06E2816D127E0702845D073285E
:1014400068D0752847D078280DD14DE0A1690B9858
:101450008847054625283FF469AFE1690B9888471E
:101460006D1C3FF46AAFB3E023466A466FF001009B
:101470000B9900F04DF99EE045F040006060A80730
:1014800023464FF0000236D43EE0E8077FF447AF32
:101490002068011D21600068290501D506701BE741
:1014A000290701D5068017E7A90703D5F117C0E979
:1014B000006111E706600FE745F040006060A80793
:1014C00023464FF0080216D41EE040F60E0125EA2E
:1014D0000100606016E045F040006060A807234608
:1014E0004FF00A0207D40FE045F040006060A80703
:1014F00008D5234610226FF001000B99AFF300804E
:1015000059E007E0234610226FF001000B99FFF726
:101510004BF950E04FF000094F464B46632802D08C
:101520005B2806D040E0E80601D40120A060012736
:101530003AE062690121019890475E2805D14FF099
:1015400001096269494601989047216939B900212A
:101550000A46534643F82120491C0829FADBB0B358
:10156000216969B9C11700EBD16253110AEB8301FC
:1015700022F01F02821A01200B68904003430B6087
:1015800062690121019890475D28E8D1B9F1000F07
:1015900009D00020514651F82020D24341F82020A4
:1015A000401C0828F7DB02AB224600976FF00100D1
:1015B0000B99FFF79FF900280CDA401C08D1BBF10A
:1015C000000F05D04FF0FF300DB0BDE8F08FFFE702
:1015D0004046F9E7E90701D108F1010806444FF058
:1015E000000B79E6CCCCCC0C2DE9FF4F087883B00A
:1015F0009946FF2805D0491C2D2804D0002400203E
:1016000008E000200BE00124F9E700EB800003EB89
:101610004000491C0B78FF2BF7D104B14042002356
:101620000293147819461D462D2C01D02B2C04D181
:10163000521C2D2C13D000240294AA461478FF2C9F
:101640000FD00A25A3FB057801FB05814FF0000CA4
:1016500003FB0C11521CE3194AEB0101EEE70124D4
:10166000EAE7814453EA010002D019F5C87F06DA9F
:1016700003980021C0E9001107B0BDE8F08F0025F4
:10168000AE4E2F46DFF8B8821846FFF730FACDE9A4
:101690000001B9F1000002DAC9F1000400E00446DB
:1016A0000023A74A1AEB030B42EB045A12E0E007AF
:1016B00007D02A46334638464146FFF7DCFC07464A
:1016C00088462A46334610461946FFF7D4FC05469D
:1016D0000E466410002CEAD1DDE90001B9F1000FDB
:1016E0005A46534606DAFFF738FD3A464346FFF7B7
:1016F00034FD05E0FFF7BFFC3A464346FFF7BBFC6D
:10170000029A0AB181F00041039AC2E90001B3E7ED
:101710002DE9FF4F1F468DB0D7E901464FF0FF3846
:101720002E2045464FF000090B90B9696D1C0E98AC
:101730008847396A824688470028F6D1BAF1FF3FC8
:101740000AD024F4D064002E11DDBAF12B0F08D09A
:10175000BAF12D0F0BD102E0404611B08DE744F4F1
:101760008064B9696D1C0E9888478246761E69466A
:10177000600501D52D2000E02B208DF8000001F13F
:10178000010B0DF1200809E0B9696D1C0E9888471E
:1017900082460F9844F40074761E0560002E02DD28
:1017A000BAF1300FF0D00B998A453ED144F0800455
:1017B00006E00F99681CA9F1010944F4007408605F
:1017C000B9696D1C761E0E98884782463028F0D085
:1017D0002BE00B998A4505D1200603D444F0800400
:1017E000761E18E0504616F0CDF808B30DF113013F
:1017F000761E44F400748B4508D2AAF130000BF831
:10180000010B200607D5A9F1010003E0200602D450
:1018100009F101008146A00502D50F99681C0860F6
:10182000B9696D1C0E9888478246002ED1DC53E0C2
:10183000002E51DDBAF1650F02D0BAF1450F4BD140
:10184000A00549D5B9696D1C24F44074761E0E9824
:1018500088478246002E0CDD2B2804D0BAF12D0FCC
:1018600007D144F48074B9696D1C0E98884782468C
:10187000761EE00501D52D2100E02B2108F8011B83
:10188000CDF82C8021E00DF12901761E44F400747E
:1018900088450CD2AAF1300010F0FF0088F8000053
:1018A00002D10B99884509D908F1010806E0E00545
:1018B00001D5244801E042F20F708146B9696D1CE0
:1018C0000E98884782460F980560002E04DD50462A
:1018D00016F058F80028D6D1F9690E988847FF20ED
:1018E0008BF8000088F800000020069007904B4617
:1018F0006A4608A906A8FFF777FEA00502D46FF094
:1019000001002AE714F0240F0AD0E00714D1DDE922
:1019100006123868031D3B600068C0E900120BE046
:10192000DDE9060100F071F80146E00704D13868EE
:10193000021D3A600068016028460EE7000014406E
:101940000000F03FF1D8FFFF2DE9F74F4FF00009FD
:10195000009C1546CA4614F8010B302801D0ADB1E1
:1019600015E014F8010B4FF00109782803D058282E
:1019700001D04DB10BE00DB1102D08D14FF0000991
:10198000102514F8010B02E0082500E00A250027C5
:101990003E46B8464FEAE57B16E0A5FB07230BFB66
:1019A000073105FB080005FB0616030CD71846F1A6
:1019B00000061FFA80F8381E4FF0010976F58030D6
:1019C00000D3CA4614F8010B2946FFF725F9002871
:1019D000E3DA019838B1B9F1000F01D0641E00E0DC
:1019E000009C01980460BAF1000F08D015F09AF835
:1019F00002210160C81E014603B0BDE8F08F31042A
:101A000041EA174148EA0740F6E701F0004330B4E5
:101A100021F0004150EA010206D00A0DA2F56072E1
:101A2000C1F31301002A02DC30BC00207047440FD0
:101A300044EAC104C100E01830BC00EBC25000F021
:101A400002B8002070470029A8BF7047401C490019
:101A500008BF20F00100704710B4B0FA80FC00FA13
:101A60000CF050EA010404BF10BC704749B1CCF13E
:101A7000200421FA04F411FA0CF118BF01212143CA
:101A80000843A3EB0C01CB1D4FEA00614FEA102085
:101A900042BF002010BC704700EBC3501044002927
:101AA000A4BF10BC7047401C490008BF20F00100D3
:101AB00010BC704770B58C1810F8015B15F0070367
:101AC00001D110F8013B2A1106D110F8012B03E0D7
:101AD00010F8016B01F8016B5B1EF9D12B0705D4DF
:101AE0000023521E0DD401F8013BFAE710F8013B28
:101AF000CB1A921C03E013F8015B01F8015B521E44
:101B0000F9D5A142D8D3002070BD0000052801D32B
:101B100000207047014951F820007047240100203F
:101B20002DE9FE430400154688464FF0010605D016
:101B3000B8F1000F02D00DB1002715E0012548F0E3
:101B4000D7FF04007ED0284610F0D2F94FA10096AE
:101B50004FF4827392E02069414650F827000068F4
:101B6000FEF7C4FD18B17F1C6069B842F3D8606904
:101B7000B8420CD9022548F0BBFF040067D02846C4
:101B800010F0B6F941A140F21713009676E08100FB
:101B90002069091D39F040FEC8B12061082015F008
:101BA000BFFD070020D0414623F0A4FD48B33846CE
:101BB00014F0BCFF062548F09BFF07003ED02846E6
:101BC00010F096F931A100964FF49A7330E0062593
:101BD00048F08EFF04003AD0284610F089F92BA176
:101BE00000964FF4907349E0062548F081FF070006
:101BF00024D0284610F07CF924A140F22B13009643
:101C000016E0381D294623F075FD18B3386814F026
:101C10008DFF384614F08AFF062548F069FF07005B
:101C20000CD0284610F064F918A100964FF49E736A
:101C30001A4ACDE9011000201949B847D4E9040136
:101C4000890000E003E039F0E7FD60B1206128463B
:101C5000BDE8FE83D4E90401002540F821706069E5
:101C6000401C6061F3E748F043FF0400EFD02846D2
:101C700010F03EF905A140F24F130096CDE9011096
:101C80000020064A0649A047E1E700002872657374
:101C9000756C74203D2025732900000014AB0508E5
:101CA000D43B0608F0B585B0144605460F4602A899
:101CB00023F020FD4FF0010670B148F019FF040039
:101CC00007D01EA0234A42232349CDE9006000200B
:101CD000A047012005B0F0BD2A682146384690474C
:101CE00004001BD002980122CDE90304E86803A98F
:101CF00014F052FD0028EDD048F0FAFE5FEA000C27
:101D000007D016A0134A59231349CDE900600020DB
:101D1000E0476A682146384690470BE048F0E8FE05
:101D2000040007D014A00B4A4C230B49CDE90060F6
:101D30000020A047029814F0F9FECAE7756E6162B0
:101D40006C6520746F20636C6F6E65206E616D65CD
:101D5000000000008E130608106E0608756E6162A2
:101D60006C6520746F20564543544F525F707573F5
:101D7000685F6261636B0000756E61626C65207400
:101D80006F20636C6F6E652076616C756500000076
:101D90002DE9F04F5FEA000A0C468DB04FF00106C6
:101DA00013D0FCB1217864220A204FF0000B0A29DD
:101DB0004FF0220979D022DC0A2932D2DFE801F083
:101DC00031FE518AC6FDFCFB31FA022548F090FE37
:101DD00004006BD02846FFF799FEFDA140F20E5398
:101DE0000096A8E2022548F083FE0400F1D02846C0
:101DF000FFF78CFEF6A140F214530096F1E710298C
:101E00007ED008DC0B297CD00C297BD00D297AD020
:101E10000E2906D1F6E3222976D023290ED02529D2
:101E200073D0022548F064FE0400D2D02846FFF7A4
:101E30006DFEE7A140F21D530096D2E7E8A150469F
:101E400010F0E8FF00287CD0012548F051FE040086
:101E5000BFD02846FFF75AFEDDA140F22753009677
:101E6000BFE7207A70B1012821D0022548F040FE5A
:101E70000400AED02846FFF749FED5A140F25653E4
:101E80000096AEE7D8A1504610F0C4FF0028DAD083
:101E9000012548F02DFE04009BD02846FFF736FEB2
:101EA000CBA140F23A5300969BE76FE23CE1D0A110
:101EB000504610F0AFFF0028C5D0012548F018FEAD
:101EC000040086D02846FFF721FEC1A140F24A5304
:101ED000009686E7237A002103AD642B05D3B3FB7C
:101EE000F2F7012130378DF80C700A2B0FD3B3FBBA
:101EF000F2F702FB1732B2FBF0F230326A5405E01F
:101F000057E380E2BAE21AE3F3E3F3E3491C237AEE
:101F1000B3FBF0F400FB143030306854491C5046D9
:101F200005F801B0294610F075FF00288BD0012577
:101F300048F0DEFD04008BD02846FFF7E7FDA4A1A2
:101F400000E0F0E040F2675300964AE7B4F9081069
:101F5000CE460DF10C084FF0010900298DF80CE078
:101F600006DA2D234FF0020949428DF80D3009B2EF
:101F70004FF47A7591FBF5F791FBF5F391FBF2FCC9
:101F800005FB171591FBF0F702FB1C1C95FBF2F506
:101F900009F10102303308F809302D2300FB171135
:101FA0009CFBF0F7303508F80250521C303708F827
:101FB000027004E0FEE3FEE3D2E143E0FCE3521CE6
:101FC000303108F80210521C08F80230A17A521C75
:101FD000B1FBF0F1303108F80210A17A521CB1FBCC
:101FE000F0F500FB1511303108F80210521C08F80A
:101FF0000230E17A521CB1FBF0F1303108F80210E6
:10200000E17A521CB1FBF0F300FB13115046303162
:1020100008F80210521C414608F802E0521C08F869
:1020200002B010F0F7FE00287DD0012548F060FDD9
:10203000040079D02846FFF769FD65A140F28C5372
:102040000096CEE694F84000002894F834006CD056
:10205000002852D07725284615F062FB07002AD0C9
:1020600094F8421094F94100CDE90801D4E90E0139
:10207000CDE9060104F108000FC8CDE90310CDE950
:102080000132A0695CA22946401C0090E3693846F1
:1020900003F26C733BF0B4FF002819DA012548F015
:1020A00027FD040027D02846FFF730FD48A140F265
:1020B000C4530096CCE3012548F01AFD0400B8D0C3
:1020C0002846FFF723FD42A140F2B453009688E66C
:1020D0003946504610F09EFE002876D0012548F083
:1020E00007FD040007D02846FFF710FD38A140F295
:1020F000C9530096E2E338462FE36225284615F0DF
:102100000FFB07002BD0D4E902100DF10C0894F856
:10211000423094F9412088E80F0004F1100007C80C
:10212000521C009202E09FE12EE138E0CDE901105F
:10213000E3693EA22946384603F26C733BF060FF28
:10214000002819DA012548F0D3FC0400D3D0284632
:10215000FFF7DCFC1EA140F2FB530096AEE3012525
:1021600048F0C6FC0400AAD02846FFF7CFFC18A10F
:1021700040F2EC53009634E63946504610F04AFEE1
:102180000028AAD0012548F0B3FC0400B3D02846AB
:10219000FFF7BCFC0EA100964FF4C0638EE3A8B11C
:1021A0006025284615F0BCFA07006DD0D4E90E0171
:1021B000CDE9060104F108000FC8CDE90310CDE90F
:1021C0000132A069401C009046E0DEE07EE00000A5
:1021D00028726573756C74203D20257329000000FA
:1021E0006E756C6C00000000747275650000000074
:1021F00066616C736500000022252E34642D252E47
:1022000032642D252E326454252E32643A252E3226
:10221000643A252E32642E252E31326C6C75252BB6
:102220002E32643A252E32642200000022252E34FC
:10223000642D252E32642D252E326454252E3264D1
:102240003A252E32643A252E3264252B2E32643AFA
:10225000252E326422000000E369FBA2294638469D
:1022600003F26C733BF0CCFE00281BDA012548F02A
:102270003FFC04008AD02846FFF748FCAFF2B001CB
:1022800040F23463009619E3012548F031FC040064
:102290007AD02846FFF73AFCAFF2CC0140F2266331
:1022A00000969EE53946504610F0B4FD00286CD0EB
:1022B000012548F01DFC0400DCD02846FFF726FC71
:1022C000AFF2F40140F239630096F7E24B2528465D
:1022D00015F026FA070021D004F108000FC8CDE957
:1022E0000310CDE90132A069E2A22946401C00900A
:1022F000E369384603F26C733BF082FE00281BDA78
:10230000012548F0F5FB0400B4D02846FFF7FEFB9A
:10231000AFF2441140F267630096CFE2012548F026
:10232000E7FB0400B4D02846FFF7F0FBAFF26011E2
:1023300040F25A63009629E23946504610F06AFD91
:102340000028B4D0012548F0D3FB040092D02846E1
:10235000FFF7DCFBAFF2881140F26C630096ADE250
:10236000A168504610F079FD00287DD0012548F085
:10237000BFFB04008CD02846FFF7C8FBAFF2B011BA
:1023800040F27E63009601E23DE19EE2B4F908204E
:10239000002103AD42F21073002A0F4606DA5142C3
:1023A0008AB22D248DF80C40012102E0228900E040
:1023B0000FB99A4205D3B2FBF3F4012730346C54C1
:1023C000491C9C46B2FBFCF4B3FBF0F30CFB14225B
:1023D0000A2BEDD2303250466A54491C05F801B040
:1023E000294610F017FD0028BFD0012548F080FBDA
:1023F000040097D02846FFF789FBAFF22C2140F26A
:10240000A9630096C2E1A1680022A34B03AD002995
:10241000174607DA2D218DF80C10A16801224942D8
:1024200000E00FB9994205D3B1FBF3F40127303432
:10243000AC54521C9C46B1FBFCF4B3FBF0F30CFB18
:1024400014110A2BEDD230315046A954521C2946A2
:1024500005F802B010F0DEFC002886D0012548F017
:1024600047FB040086D000E0F3E12846FFF74EFB6F
:10247000AFF2A42140F2D463009687E1D4E9028050
:10248000864D4FF00009864F0028CDF800900BDAFA
:102490002D218DF80C10D4E9021200204FF0010913
:1024A000D1F1000860EB0200044627E0009838B93B
:1024B0002A463B4640462146FDF712FE08430DD012
:1024C0002A463B4640462146FDF70AFE012100917F
:1024D00003A9303001F8090009F101092A463B46F9
:1024E00040462146FDF7FCFD90461C460A22284640
:1024F00000233946FDF7F4FD05460F460A20281A49
:1025000077F10000D2D203A909F1010008F13008E7
:1025100001F8098001F800B0504610F07BFC00285B
:102520009BD0012548F0E4FA04006CD02846FFF760
:10253000EDFAAFF2643140F2FE630096D3E394F912
:102540000830002103AC002B04DA2D218DF80C108B
:102550005B420121642B04DB93FBF2F530356554BB
:10256000491C0A2B08DB93FBF2F502FB153292FBA8
:10257000F0F230326254491C93FBF0F500FB153049
:1025800030306054491C504604F801B0214610F028
:1025900041FC0028C4D0012548F0AAFA040032D03A
:1025A0002846FFF7B3FAAFF2D83140F21C73009619
:1025B00099E3D4E9025000221346804610460FE00A
:1025C00018F8001080290DD21F2901D8521C06E0EE
:1025D000222903D05C2901D02F2900D15B1C401C8B
:1025E000A842EDD3A8420FD2022548F081FA040098
:1025F00009D02846FFF78AFAAFF22C4140F2467321
:10260000009670E3C3E092E002EB82002844184495
:102610000090001D15F084F8040006D05C224B46A3
:10262000012084F80090002173E0012548F060FA51
:1026300004007CD02846FFF769FAAFF26C414FF4F2
:10264000EA6300964FE3000022252E34642D252EE8
:1026500032642D252E326454252E32643A252E32D2
:10266000643A252E32642E252E31326C6C755A2236
:102670000000000022252E34642D252E32642D25E5
:102680002E326454252E32643A252E32643A252E99
:1026900032645A220000000000CA9A3B0000E88918
:1026A0000423C78A18F801701F2F1BD82254401C1E
:1026B0004FF0750C302704F800C0401C2754401C14
:1026C000275418F801C0401CFC4F07EB1C1C9CF859
:1026D00000C004F800C018F801C00CF00F0C17F887
:1026E0000C7012E0222F06D05C2F08D02F2F0AD0BA
:1026F0000CE097E137E02254401C235407E02254B9
:10270000401C225403E02F272254401C2754401C15
:10271000491CA942C6D3009923540A1921465046A0
:1027200082F802B010F076FBA8B1012500E016E0B7
:1027300048F0DEF907000FD02846FFF7E7F9AFF2BF
:10274000705100964FF4F063CDE901100020DC4A8F
:10275000DC49B84700E00025204614F0E7F90DB049
:102760002846BDE8F08FE168504610F053FB002882
:102770006FD0012548F0BCF90400F0D02846FFF7DF
:10278000C5F9AFF2B45140F296730096ABE2A0687F
:1027900020F00041C1F1FF41002917D5CAA15046E0
:1027A00010F038FB0028E3D0012548F0A1F904001F
:1027B000D5D002E0A4E18AE09EE22846FFF7A6F920
:1027C000AFF2F45140F2AD7300968CE214F090F940
:1027D000B0B1A068C00F13D0BCA1504610F01AFBD6
:1027E0000028C5D0012548F083F90400B7D0284659
:1027F000FFF78CF9AFF2286140F2B973009672E2EC
:10280000A06814F075F910B1A068C00F22D024257B
:10281000284614F085FF070030D094ED020A062305
:102820002946ACA2B7EEC00A8DED000B3BF0E8FBE9
:10283000002831DA012548F05BF904003FF45BAC75
:102840002846FFF763F9AFF2786140F2DA73009639
:1028500034E04FE2A1A1504610F0DCFA002887D006
:10286000012548F045F9040087D02846FFF74EF9C6
:10287000AFF2A46140F2C573009634E2012548F03E
:1028800037F9040094D02846FFF740F9AFF2C06151
:1028900040F2D373009626E23946504610F0BAFA59
:1028A00098B1012548F024F90400C7D02846FFF765
:1028B0002DF9AFF2E46140F2DF730096CDE901102B
:1028C00000207F4A7F49A04715E4002513E494EDDA
:1028D000020B10EE101A10EE900A8DED000B01B1F4
:1028E000012108437E4920F00040081AC00F13D090
:1028F00075A1504610F08EFA0028B0D0012548F09E
:10290000F7F80400B0D02846FFF700F9AFF24071A5
:102910004FF4FF630096E6E151EC100B14F0DAF887
:10292000D8B194ED020B10EE900A8DED000BC00FA4
:1029300013D066A1504610F06DFA00288FD0012503
:1029400048F0D6F804008FD02846FFF7DFF8AFF242
:10295000807140F605030096C5E194ED020B51EC41
:10296000100B14F0B7F838B194ED020B10EE900A8A
:102970008DED000BC00F1ED02225284614F0D0FE8E
:1029800007002CD094ED020B0F2329468DED000B90
:1029900050A23BF035FB00282FDA012548F0A8F8BB
:1029A000040091D02846FFF7B1F8AFF2DC7140F691
:1029B0002803009682E749A1504610F02BFA002820
:1029C0009BD0012548F094F804009BD02846FFF7DF
:1029D0009DF8AFF6040140F61203009683E101254D
:1029E00048F086F804008DD02846FFF78FF8AFF640
:1029F000200140F62103009675E13946504610F05B
:102A000009FA00283FF461AF012548F071F804008D
:102A1000C7D02846FFF77AF8AFF64C0140F62D03F1
:102A200000964BE72F4900252F480EF051FB5FEA37
:102A3000000803D000274FF0040926E0012548F0E4
:102A400057F80400C1D02846FFF760F8AFF68001C0
:102A500040F64703009646E1E06809EBC70142589B
:102A600050F8371040460EF057FA68B1012548F08B
:102A70003FF8040040D02846FFF748F8AFF6B00111
:102A800040F65203009617E07F1CA068B842E3D8D6
:102A9000AFF60352514640460DF0D8FB30B3012546
:102AA00048F026F8040027D02846FFF72FF8AFF6A5
:102AB000E00140F661030096014A18E010B90508EC
:102AC0002FBB0508BC4F06084E614E002D494E46EF
:102AD00000000000252E2A6600000000494E460036
:102AE0000000F07F5B1502084D15020804E0CDE9F7
:102AF00001100020D949A04740460EF04BFB2EE6BE
:102B00008DF80C904F46207A00091DF0ABFE8DF831
:102B10000D00207A00F00F001DF0A4FE8DF80E00CD
:102B2000607A00091DF09EFE8DF80F00607A00F0BB
:102B30000F001DF097FE8DF81000A07A00091DF01F
:102B400091FE8DF81100A07A00F00F001DF08AFEB2
:102B50008DF81200E07A00091DF084FE8DF8130054
:102B6000E07A00F00F001DF07DFE8DF814002D2599
:102B70008DF81550207B00091DF074FE8DF81600AD
:102B8000207B00F00F001DF06DFE8DF81700607BBC
:102B900000091DF067FE8DF81800607B00F00F0043
:102BA0001DF060FE8DF819008DF81A50A07B000909
:102BB0001DF058FE8DF81B00A07B00F00F001DF0EB
:102BC00051FE8DF81C00E07B00091DF04BFE8DF8D6
:102BD0001D00E07B00F00F001DF044FE8DF81E008C
:102BE0008DF81F50207C00091DF03CFE8DF8200060
:102BF000207C00F00F001DF035FE8DF82100607C78
:102C000000091DF02FFE8DF82200607C00F00F00FF
:102C10001DF028FE8DF823008DF82450A07C0009BB
:102C20001DF020FE8DF82500A07C00F00F001DF0A7
:102C300019FE8DF82600E07C00091DF013FE8DF8CA
:102C40002700E07C00F00F001DF00CFE8DF828003E
:102C5000207D00091DF006FE8DF82900207D00F082
:102C60000F001DF0FFFD8DF82A00607D00091DF0AA
:102C7000F9FD8DF82B00607D00F00F001DF0F2FDD6
:102C80008DF82C00A07D00091DF0ECFD8DF82D00C5
:102C9000A07D00F00F001DF0E5FD8DF82E00E07D19
:102CA00000091DF0DFFD8DF82F00E07D00F00F0022
:102CB0001DF0D8FD8DF8300003A98DF83170504615
:102CC0008DF832B010F0A6F8A0B1012547F010FF42
:102CD00004003FF414AF2846FEF718FFAFF610319A
:102CE00040F6A2030096CDE9011000205C4A5B4942
:102CF000A04734E5002532E5A068002528B103216E
:102D0000401EB0FBF1F08000001DC01C14F008FD57
:102D1000070004D022204FF00109387038E0012567
:102D20001DE5E068405D800815F012FE0090681C0B
:102D3000E2680290515D105C8907890E41EA10102B
:102D400015F006FE019005F10208E268029912F8FA
:102D50000800515C0907890E41EA901015F0F8FD52
:102D60000290E16811F8080000F03F0015F0F0FD56
:102D70000146009807F8090009F10100019A09F1DC
:102D800004093A54401C029A3A54401CED1C395430
:102D9000A068401B0328C4D2A068401B022802D0B0
:102DA000012825D03DE0E068405D800815F0D0FDA9
:102DB0000190681CE2680090515D105C8907890EE3
:102DC00041EA101015F0C4FDE16880460098085CE7
:102DD00000F00F0015F0A2FD0246019807F8090067
:102DE00009F101003D2107F80080401C3A5414E02D
:102DF000E068405D800815F0ABFD8046E068405D0E
:102E000000F0030015F09CFD024609F1010007F8EF
:102E100009803D213A54401C3954401C00F10109FD
:102E200039542220394607F8090009F1010007F852
:102E300000B050460FF0EEFF00283FF446AD0125EC
:102E400047F056FE04003FF43FAD2846FEF75EFE15
:102E5000AFF6844140F6FA0300962FE5BC4F060812
:102E60002FBB05080E4900B587B00A6842F400720E
:102E70000A60096803230B4A01F4007105910121DE
:102E800052F82020CDE90021CDE90213054908318F
:102E900051F82000694607F06DFC07B000BD000046
:102EA00030380240F40200200549054A083231F862
:102EB000201052F8200089B2002207F04BBD00001C
:102EC000F40200200549054A083231F8201052F872
:102ED000200089B2012207F03DBD0000F40200206D
:102EE0000449044A083231F8201052F8200089B20F
:102EF00007F02CBDF402002030B504461D4887B011
:102F0000026842F00102026000684FF002021A4DAE
:102F10001A4B00F0010005904FF00000E9B10129C3
:102F200019D135F81410164DCDE90202CDE900157E
:102F300053F82400694607F01DFC0F4D00220F21B5
:102F4000AD1C15F8140040B207F0CAFD15F81400C6
:102F500040B207F0B8FD07B030BD35F81410CDE928
:102F60000010CDE9020253F82400694607F002FC84
:102F7000F1E7000030380240DA150608F0020020C0
:102F8000000011107CB5002818D00446082014F069
:102F9000C7FB050011D0616800F0F0F978B147F087
:102FA000A7FD040009D00AA1124A012040F26A23B9
:102FB000CDE9000100201049A04700207CBD286811
:102FC000D4E90012FDF731FB6168284669607CBDD9
:102FD0004661696C7572653A20616C6C6F636174EF
:102FE000696E672074656D70206275666665722E05
:102FF00000000000C3120608606C060820B119B179
:1030000000680860002070474FF486707047000029
:10301000FEB505000F464FF0010619D0082014F048
:103020007FFB040023D0394600F0A8F900282BD0FC
:1030300047F05EFD050007D017A01F4A50231F4927
:10304000CDE900600020A847204613F06FFD0CE09A
:1030500047F04EFD040008D019A000963E23164A02
:10306000CDE9010500201549A047002411E047F0F3
:103070003FFD05000DD01AA00F4A49230F49CDE9A5
:1030800000600020A84704E020683A462946FDF782
:10309000CCFA2046FEBD0000756E61626C6520743E
:1030A0006F204255464645525F736166656D616C9F
:1030B0006C6F6320000000002E120608606C06088A
:1030C000696E76616C696420706172616D657465AA
:1030D0007220736F757263653A20257000000000DE
:1030E0004661696C75726520616C6C6F63617469AF
:1030F0006E6720425546464552207374727563745C
:1031000075726500002810B509D00446006808B142
:1031100013F00CFD2046BDE8104013F007BD10BDB4
:103120007CB50D464FF0010668B1E5B10446D4E91F
:103130000001294438F070FB28B36168206000204A
:10314000294461607CBD47F0D3FC040008D016A080
:103150001C4A4FF49E731C49CDE900600020A04733
:1031600040F23D107CBD47F0C3FC040008D017A01E
:10317000144A15494FF4A173CDE900600020A0471F
:1031800040F243107CBD47F0B3FC040008D017A008
:103190000C4A4FF4A6730C49CDE900600020A0470B
:1031A00040F24D107CBD00004661696C7572653A55
:1031B0002068616E646C6520697320696E76616C4D
:1031C00069642E007D120608606C06084661696C11
:1031D0007572653A20656E6C6172676553697A65D0
:1031E0002073697A6520697320302E004661696C0E
:1031F0007572653A20616C6C6F636174696E6720EB
:1032000074656D70206275666665722E0000000040
:10321000002800D040687047082010B514F080FAEC
:10322000002802D000210160416010BD7CB50D4630
:1032300090B19DB104460068012688B147F058FC62
:10324000040007D011A0184AF0231849CDE9006006
:103250000020A047F1207CBDE3207CBDE8207CBDA0
:10326000084614F05DFA206010B1002065607CBD56
:1032700047F03EFC040007D00DA00B4AF8230B4991
:10328000CDE900600020A047F9207CBD4661696C53
:10329000757265206275666665722064617461206E
:1032A0006973204E554C4C005D120608606C060890
:1032B0004661696C75726520616C6C6F63617469DD
:1032C0006E67206275666665720000007CB510B19D
:1032D00009B1884202D14FF4F6707CBD0446006803
:1032E0000D46F0B12868F8B168680028F5D061682B
:1032F000084414F015FA060019D0D5E90012FDF7BC
:1033000094F96868D4E900123044FDF78EF920681A
:1033100013F00CFC2660002069686268114461604B
:103320007CBD40F2F5107CBD4FF4FD707CBD47F0D4
:10333000DFFB040009D006A10E4A012040F20B2356
:10334000CDE9000100200C49A0474FF403707CBD7B
:103350004661696C7572653A20616C6C6F6361746B
:10336000696E672074656D70206275666665722E81
:1033700000000000A8120608606C06087CB50C006E
:103380000546084600D1012014F0CAF9286010B1A2
:1033900000206C607CBD47F0ABFB040008D005A1A9
:1033A0000A4A01202C23CDE9000100200849A0474A
:1033B0002D207CBD4661696C75726520616C6C6FF7
:1033C000636174696E672064617461001C12060891
:1033D000606C060820B119B1406808600020704791
:1033E0004FF4D270704718B1416809B10068704756
:1033F00000207047FEB504004FF0010611D0FDF724
:103400006EF980071BD047F073FB040007D02DA096
:10341000344AC9233449CDE900600020A047002583
:103420004DE047F065FB0500F9D030A00096C123C0
:103430002C4ACDE9010400202B49A847EFE7FFF70C
:10344000EBFE05000DD02046FDF749F9002836D0E7
:103450002218810812F8010C01EB41013D280DD022
:1034600012E047F045FB040029D02AA01D4AD123D1
:103470001D49CDE900600020A04720E012F8020CB1
:103480003D2800D1491E491EC9B12846FFF7CEFE8E
:1034900078B147F02DFB040007D028A0114ADC23A7
:1034A0001149CDE900600020A0472846FFF72AFE19
:1034B000B5E72846FFF797FF214600F09DF928461B
:1034C000FEBD0000496E76616C6964206C656E67B4
:1034D00074682042617365363420737472696E6754
:1034E00021000000D025060878770608696E76610D
:1034F0006C696420706172616D6574657220636FC0
:103500006E737420636861722A20736F75726365CD
:103510003D257000436F756C64206E6F742063727C
:103520006561746520612062756666657220746FDE
:10353000206465636F64696E672E0000436F756C6D
:1035400064206E6F74207072656275696C642061AE
:103550002062756666657220666F722062617365AF
:10356000203634206465636F64696E672E00000046
:103570002DE9FF5F5FEA010807464FF0010A4FF0AF
:1035800000060ED00321A8F10100B0FBF1F080008D
:10359000001D401C14F0C4F805004FF0000402D0D8
:1035A00036E00020F5E747F0A3FA05007DD0F923C7
:1035B0004BA189E0B85D800815F0DFF9019007EBB9
:1035C0000609B95D99F801008907890E41EA1010D2
:1035D00015F0D3F9009099F8011099F80200090745
:1035E000890E41EA901015F0C8F9834699F8020057
:1035F00000F03F0015F0C1F901992955641C0099AC
:103600002955641C05F804B0641C2855641CF61C7C
:10361000A8EB06000328CDD2A8EB06004FF03D082A
:10362000022802D0012828D03BE0B85D800815F0C0
:10363000A4F98146B85D3E4480077178800E40EA67
:10364000111015F09AF9024670782E4900F00F001B
:1036500020F00307800791E84A108DE84A10C10E58
:103660005DF8070005F80490C840641C2A55641CE6
:103670002855641C05F8048012E0B85D800815F038
:103680007CF90146B85D295582071F48D20ED0400B
:10369000641C2855641C05F80480641C05F804802B
:1036A000641C00202855284600E014E00FF09BFD24
:1036B000040010D1284613F039FA47F019FA050032
:1036C00009D012A14FF49B730E4A1F320020CDE99E
:1036D00000A11C49A84704B02046BDE8F09F0000A7
:1036E0004261736536345F456E636F6465723A3A62
:1036F00020416C6C6F636174696F6E206661696CE8
:1037000065642E00C02506084151677742617365E4
:1037100036345F456E636F6465723A3A20416C6C73
:103720006F636174696F6E206661696C65642066A1
:103730006F722072657475726E2076616C75652E7D
:1037400000000000787706087FB504004FF00106FE
:1037500004D003A9FFF752FC70B908E0002447F039
:10376000C7F905001CD010A04FF4AF730CE002A9FC
:103770002046FFF72FFE70B1002447F0B9F905008D
:103780000ED010A04FF4B473194A1A49CDE9006065
:103790000020A84704E0DDE90210FFF7E9FE044637
:1037A00004B0204670BD00004261736536345F4549
:1037B0006E636F6465723A3A204E554C4C20696EC8
:1037C000707574004261736536345F456E636F6473
:1037D00065723A3A204255464645525F726F75749B
:1037E000696E6573206661696C7572652E000000F4
:1037F000F6250608787706082DE9FF4700250E46CE
:10380000804600E06D1C6946705D15F0EDF8401CC7
:10381000F8D100273C4633E0F05D02A915F0E4F84A
:1038200006EB0709694699F8010015F0DDF899F8EB
:10383000020001A915F0D8F899F8030003A915F0C2
:10384000D3F89DF808002D1F9DF80010800040EA75
:10385000111008F804009DF80000641C9DF8041085
:10386000000140EA910108F804109DF80400641C6E
:103870009DF80C1041EA801108F80410641C3F1DEB
:10388000042DC9D2022D23D0032D1FD1F05D01A933
:1038900015F0AAF8F5196946687815F0A5F8A87822
:1038A00002A915F0A1F89DF804109DF80000890008
:1038B00041EA101008F804009DF800009DF8081077
:1038C0000001641C40EA910108F80410BDE8FF877C
:1038D000F05D694615F088F8F01901A9407815F0F7
:1038E00083F89DF800109DF80400890041EA10104B
:1038F00008F80400EAE7FEE710B506F0C9FA084840
:1039000000210278012A02D90170022010BD02783C
:10391000012A01D0002010BD0170012010BD00005F
:10392000E405002070B5044607F01AF806190A4CA1
:1039300000252078012802D92570022070BD20784A
:10394000012805D007F00CF8B042F2D3002070BD7A
:103950002570012070BD0000E40500200830072814
:103960000AD2DFE800F004161412100604000AA0C0
:1039700000E011A013F03CF80120FFF7B1FAC820D5
:1039800006F086FAF8E713A0F4E719A0F2E720A002
:10399000F0E726A0EEE700004572726F7220696EB4
:1039A000697469616C697A696E6720746865206DF5
:1039B0006F64756C65210A004572726F72206465D0
:1039C00074656374696E67206D6F64756C65210A38
:1039D000000000004572726F7220636F6E6E656347
:1039E00074696E6720746F204150210A0000000046
:1039F0004572726F722072657472696576696E675E
:103A00002049502061646472657373210A000000CC
:103A10004572726F7220636F6E6E656374696E6754
:103A200020746F20436C6F7564210A004572726FB9
:103A30007220696E697469616C697A696E67207455
:103A40006865205254432066726F6D20746865204B
:103A50006E6574776F726B2074696D65210A000062
:103A60000E2801D300207047014951F8200070470B
:103A7000BC0000201CB578B971B147F039F80400DA
:103A800008D007A1124A01204C23CDE900010020F3
:103A90001049A04700201CBDBDE81C4000F01CB828
:103AA000696E76616C696420617267756D656E74AC
:103AB000732070617373657320746F20434F4E538E
:103AC000544255464645525F437265617465000035
:103AD00026130608B86D06082DE9FC410D46804600
:103AE0000C2013F01DFE4FF0010680B1C0E9015615
:103AF0000446D5B1284613F013FE070018D02A4615
:103B00004146FCF792FD27602046BDE8FC81044653
:103B100046F0EEFF0500F7D00EA0134A1F2313490D
:103B2000CDE900600020A847EEE700202060EBE729
:103B300046F0DEFF050007D006A00B4A31230B49F3
:103B4000CDE900600020A847204612F0EFFF0024D6
:103B5000DAE70000756E61626C6520746F206D613C
:103B60006C6C6F63000000000A130608B86D06084D
:103B7000002810B50CD08168491E816008D1044628
:103B8000006812F0D3FF2046BDE8104012F0CEBF0F
:103B900010BD00007CB510B1044620467CBD002459
:103BA00046F0A6FF0500F8D004A1074A01207F23B4
:103BB000CDE9000100200549A847EEE7696E76616E
:103BC0006C6964206172670068130608B86D0608A6
:103BD000F0B5BFF34F8FBFF36F8F1A490020086015
:103BE000BFF34F8FBFF36F8F174A116841F4003155
:103BF0001160BFF34F8FBFF36F8F134970310860AF
:103C0000BFF34F8F081F43F6FF7400680D4D10354A
:103C1000C0F34E31C0F3C90304EA4116184600BF91
:103C200046EA80772F60401EFAD2491EF4D2BFF3D5
:103C30004F8F106840F480301060BFF34F8FBFF398
:103C40006F8FF0BD50EF00E014ED00E02DE9F04182
:103C50004FF400550E460746284613F061FD040058
:103C60001DD02946FCF708FD13A0394612F0C0FE0E
:103C7000294620461AF032FD14A0214612F0B8FE63
:103C80002046FCF72CFD421C2146304605F0B8FDCD
:103C90000546204612F04AFF2846BDE8F08110494B
:103CA00010A040F2691212F0A3FE12A0294612F0F1
:103CB0009FFE4FF0FF30F0E70A456E746572207981
:103CC0006F75722025733A200A00000072656164E6
:103CD0003A202D2D2D3E0A25730A3C2D2D2D0A004C
:103CE000613806084552524F523A202573204C2322
:103CF00025642000436F756C64206E6F7420616CC6
:103D00006C6F63617465202564206279746573202B
:103D1000666F722074686520636F6E736F6C6520C8
:103D2000726561646275666665722E0A0000000045
:103D30007CB506004FF001054FF0000420D00820AC
:103D400013F0EEFC040022D0002060602060716857
:103D5000002929D0201D21F0CDFC002824D046F0D8
:103D6000C7FE060007D01CA0294A76232949CDE9C1
:103D700000500020B047204612F0D8FE002429E071
:103D800046F0B6FE060025D0672323A005E046F0E6
:103D9000AFFE06001ED06E2328A01D4A1D49CDE9A6
:103DA00000500020B04715E0316899B1204621F05D
:103DB000A1FC78B146F09CFE060007D023A0144A6F
:103DC0007C231449CDE900500020B047606812F010
:103DD000ADFED0E720467CBD6D616C6C6F63416EBB
:103DE000645374726370795F7320666F72206469C4
:103DF00061676E6F737469634372656174696F6E36
:103E000054696D65557463206661696C6564000072
:103E10000934060884890608496E76616C69642055
:103E2000617267756D656E74202D20736F75726396
:103E300065206973204E554C4C0000006D616C6C20
:103E40006F63206661696C65640000006D616C6C75
:103E50006F63416E645374726370795F7320666F31
:103E60007220646961676E6F737469634964206668
:103E700061696C65640000002DE9FE4F07001D4676
:103E800091468A464FF001062ED00021084600F0E8
:103E900057FA142013F044FC040032D0484613F0C3
:103EA0003FFC011E20613DD038461CF01DFF474BF2
:103EB000224647493846CDE90045029404F0E6FF22
:103EC00078B3206912F032FE204612F02FFE002453
:103ED00046F00EFE050076D00B20FFF7C1FD3DA198
:103EE00040F29F33009618E0002446F001FE0500E2
:103EF00069D00120FFF7B4FD36A140F27933009676
:103F00000BE0002446F0F4FD05005CD00420FFF730
:103F1000A7FD30A100964FF46173304ACDE901103E
:103F200046E00FE0204612F001FE002446F0E0FDDE
:103F3000050048D00420FFF793FD26A140F28F33FF
:103F40000096EAE7264DB04668688100A868091D1A
:103F500037F062FC060012D0C4F804A03846C4E969
:103F600002790FF07DFB38B3206805F07BF82069FB
:103F700012F0DCFD204612F0D9FD002423E0206879
:103F800005F070F8206912F0D1FD204612F0CEFD48
:103F9000002446F0ADFD050015D00420FFF760FDBC
:103FA0000CA2CDF80080CDE901200C4A40F2A933E3
:103FB00000200C49A84706E0AE606868411C46F83E
:103FC0002040696024692046BDE8FE8FA1450108B4
:103FD000B94301082025732000000000F5B705084B
:103FE000AC0000208C4A06087CB5124C20780128D1
:103FF0000ED046F07DFD040009D00F4901204FF49A
:10400000E2730E4ACDE9000100200D49A0477CBDB6
:10401000002504E050F8250004F076F86D1C606877
:104020008542A068F6D312F081FD0020A060606098
:1040300020707CBDAC000020384D060881B7050813
:104040008C4A06082DE9FF4104000E464FF0010797
:104050000CD05EB105F04EFDD8B10068314605F0D8
:1040600065F8054604B02846BDE8F081022546F013
:104070003FFD5FEA000CF5D00DF104080D480097F4
:104080004FF4C0630C4A88E8510000200B49E04718
:10409000E8E7022546F02CFD0600E3D008A00097D3
:1040A000CDE901040020044A044940F20A63B04704
:1040B000D8E70000344B060889B805088C4A060882
:1040C000756E61626C6520746F2066696E64207421
:1040D00068652064657669636520676976656E202A
:1040E000627920616464726573732025700000003A
:1040F0002DE9FF41040015460E464FF001070DD093
:1041000066B105F0F7FCE0B100682A46314605F0DB
:1041100033F8054604B02846BDE8F081002546F096
:10412000E7FC5FEA000CF5D00DF104080D4800979C
:1041300040F21E630C4A88E8510000200B49E0471A
:10414000E8E7002546F0D4FC0600E3D008A000977D
:10415000CDE901040020044A044940F22663B04737
:10416000D8E700009C4B0608A2B805088C4A060850
:10417000756E61626C6520746F2066696E64207470
:1041800068652064657669636520676976656E2079
:104190006279206164647265737320257000000089
:1041A00010B53BA10446FCF7A1FA002856D03AA16D
:1041B0002046FCF79BFA002852D039A12046FCF794
:1041C00095FA002854D037A12046FCF78FFA002832
:1041D00050D036A12046FCF789FA002842D035A1FC
:1041E0002046FCF783FA00283ED034A12046FCF795
:1041F0007DFA00283AD033A12046FCF777FA002850
:1042000036D032A12046FCF771FA002832D031A115
:104210002046FCF76BFA00282ED030A12046FCF790
:1042200065FA002828D02FA12046FCF75FFA28B3B2
:1042300030A12046FCF75AFA10B335A12046FCF70E
:1042400055FAF8B138A12046FCF750FAE0B139A18F
:104250002046FCF74BFAC8B1002010BD072010BD66
:104260000E2010BD0D2010BD032010BD0A2010BD72
:104270000B2010BD0C2010BD022010BD102010BD61
:10428000252010BD052010BD092010BD012010BD46
:10429000646F75626C650000666C6F61740000008D
:1042A000696E74006C6F6E6700000000696E743890
:1042B0005F74000075696E74385F7400696E7431E4
:1042C000365F7400696E7433325F7400696E7436E1
:1042D000345F74005F426F6F6C000000626F6F6C40
:1042E0000000000061736369695F636861725F70F9
:1042F0007472000061736369695F636861725F7003
:1043000074725F6E6F5F71756F746573000000008B
:1043100045444D5F444154455F54494D455F4F46C8
:10432000465345540000000045444D5F47554944FD
:104330000000000045444D5F42494E415259000083
:104340003EB5124A1378ABB14FF00205E1B146F029
:10435000CFFB040018D02846FFF782FB0CA1029087
:10436000012240F2A9130020CDE90021104A114991
:10437000A04709E000235360C2E9023009B10120DF
:1043800000E002201070002528463EBDAC00002051
:10439000436F646546697273742077617320616C42
:1043A000726561647920696E69742025730000006C
:1043B0006DB705088C4A06082DE9F04F85B00E460A
:1043C0004F49012798461446DDE90EBA097809B32A
:1043D000B8F1000F2BD050B34CB35FEA0B0002D002
:1043E0005FEA0A0030D0B06810F04AFE01467068FB
:1043F000006805F099FB010039D0706804AB2246D3
:10440000006805F033FB5FEA000930D070680225D0
:10441000046851E0022546F06BFB04004ED02846AC
:1044200005F0ACF837A140F22323009718E00225ED
:1044300046F05EFB040041D0284605F09FF840A1FD
:1044400040F22B2300970BE0022546F051FB0400BD
:1044500034D0284605F092F83FA140F2312300976E
:10446000CDE901100020434A4349A04726E0022538
:1044700046F03EFB040021D0284605F07FF83FA21D
:104480003D49CDE90280002040F24223CDE900728F
:10449000384AA04712E0207806280CD1D4F88010C2
:1044A0004046FCF723F930B9D4F89010D9F89400BD
:1044B000FCF71CF9B8B16468002CECD146F018FB8D
:1044C00004000CD0284605F059F833A10097CDE937
:1044D00001100020274A284940F25D23A04705B07B
:1044E0002846BDE8F08F306952460499D4F88C30E4
:1044F00008445946984702280546DFD0EFE70000F8
:10450000AC000020436F646546697273745F496E46
:10451000766F6B65416374696F6E2063616C6C6567
:1045200064206265666F726520696E6974206861D7
:104530007320616E206572726F72202573200000F7
:10454000616374696F6E204E616D65206973204EE2
:10455000554C4C2025732000706172616D65746547
:104560007256616C756573206572726F7220257367
:104570002000000092B705088C4A06086163746940
:104580006F6E20257320776173206E6F7420666FC5
:10459000756E642025732000202573200000000024
:1045A0002DE9F04F89B08146514801271E469046BB
:1045B000DDE912BA0D46007810B356B3B9F1000F19
:1045C00027D0B8F1000F24D05FEA0B0002D05FEAD9
:1045D0000A0036D0A86810F053FD014668680068EC
:1045E00005F0A2FA01003BD0686803AB42460068C0
:1045F00005F03CFA5FEA000832D06868046847E0DA
:10460000002446F075FA05006ED03AA040F26A2305
:104610001FE0002446F06CFA5FEA000C64D0424BC5
:104620000020CDF81CA0CDF80890404ACDE90073D9
:10463000CDE90358CDE9056B3D4940F27123E047D0
:1046400052E0002446F054FA05004DD039A040F263
:104650007723364A3649CDE900700020A84743E069
:10466000002446F045FA05003ED038A040F28623EB
:10467000009733E0207850B9A1683046FCF736F84F
:1046800028B9A169D8F89400FCF730F818B164682B
:10469000002CEFD10AE04CB12869524603996369B6
:1046A000084459469847040010D01DE046F020FA0F
:1046B000040009D02BA00097CDE9010600201B4A79
:1046C0001B4940F29723A04700240DE046F010FA62
:1046D000050009D029A040F29F230097CDE90106EB
:1046E0000020124A1249A84709B02046BDE8F08FC1
:1046F000AC000020436F646546697273745F496E55
:10470000766F6B654D6574686F642063616C6C6572
:1047100064206265666F726520436F6465466972E6
:1047200073745F496E697400684C0608A9B7050880
:104730008C4A0608706172616D6574657256616CB1
:10474000756573206572726F722000006D65746804
:104750006F6420257320776173206E6F7420666FFD
:10476000756E64006D6574686F6420222573222065
:104770006E6F7420666F756E640000006D657468FE
:104780006F64202225732220657865637574696FD4
:104790006E206572726F72202872657475726E6514
:1047A00064204E554C4C29002DE9FF4105000F4671
:1047B0004FF001060AD04FB12248C06800B105464B
:1047C000284610F0B1FC040012D037E046F090F912
:1047D00004000BD00DF104081B48009640F2B323EF
:1047E0001A4A88E8A10000201949A047002425E0C2
:1047F000394628460FF0D0FB040004D0394614F0A7
:10480000C9FBB8B911E046F073F9050016D00820CD
:10481000FFF726F90FA10096CDE9011000200B4A01
:104820000B4940F2C523A84708E03946204614F05A
:1048300069FB18B120460FF0E5FFD7E704B020462A
:10484000BDE8F081AC000020084C0608C0B70508A0
:104850008C4A0608736368656D6120696E6974200F
:104860006661696C65642025730000000FB42DE952
:10487000F04F97B00125229870B1209860B121982F
:1048800050B100210846FFF75BFD4FF0000923AE51
:10489000CA464C464F46E1E0012446F029F906009D
:1048A0007ED02046FFF7DCF883A140F2B5430095A7
:1048B000F3E000BF56F804BB584605F01BF95FEA69
:1048C000000811D0B9F1000F1BD0C84520D00A2430
:1048D00046F00EF9060078D02046FFF7C1F876A121
:1048E00040F2D74300956AE0012446F001F9060042
:1048F000F1D02046FFF7B4F86FA140F2CF43009506
:104900005DE0D8F8000004F0E9FC5FEA000A16D088
:10491000D8F81010C14659451ED15146484610F0EE
:10492000BDFD040073D046F0E3F80600D3D0204666
:10493000FFF796F860A140F2EE4300953FE00C24AB
:1049400046F0D6F80600C6D02046FFF789F85AA1EF
:1049500040F2E143009532E00EF031FC5FEA0008DE
:1049600021D0D9F8080010F08BFB78B30023024661
:1049700059464846CDF8008005F050F938B3026F2B
:1049800004A95846904780B3092446F0B1F80600C0
:104990002CD02046FFF764F847A140F21B5300E0FB
:1049A00069E000954CE0042446F0A2F8060059D0D6
:1049B0002046FFF755F840A140F2FC430095CDE9B1
:1049C00001100020404A4149B0474BE000E011E0AF
:1049D000042446F08DF8060008D02046FFF740F882
:1049E00035A140F2055300952AE011E040460EF053
:1049F000CDFB37E0012446F07BF80600F6D02046D8
:104A0000FFF72EF82CA140F20D53009518E024E09A
:104A100040460EF0DDF904AA0146504604F0D2FBF0
:104A2000A8B104A803F0D4FC0C2446F061F80600F9
:104A3000DCD02046FFF714F81FA140F2295300955F
:104A4000CDE901100020204A2049B047CEE740467A
:104A50000EF09CFB04A803F0BBFC7F1C229887424D
:104A6000FFF428AF22988742504605D2BAF1000FD2
:104A70001BD004F07FF918E0DDE9201204F020FBE0
:104A800090B10C2446F034F806000ED02046FEF714
:104A9000E7FF09A140F246530095CDE9011000203F
:104AA000094A0A49B04700E0002417B02046BDE893
:104AB000F00F5DF814FB000028726573756C7420AC
:104AC0003D2025732900000059B805088C4A0608C6
:104AD0000FB42DE9F04F5FEA000B8A4697B04FF014
:104AE00001050FD0BAF1000F0CD0229850B100216F
:104AF0000846FFF725FC002001900724814623AFDC
:104B00000646E8E045F0F4FF04000DD0894B002094
:104B1000229ACDF808B08949CDE90053CDE903A226
:104B2000854A40F25B53A0470124E1E001CF5FEAF0
:104B30000008404617D004F0DDFF009018B301983C
:104B400000282DD0DDE90001884230D00A2445F04C
:104B5000CFFF070016D02046FEF782FF78A140F273
:104B60008353009576E045F0C3FF040009D078A098
:104B7000714A724940F271530296CDE9005000200B
:104B8000A0470124ABE0012445F0B2FF0700F9D0B3
:104B90002046FEF765FF6AA140F27B53009559E07D
:104BA0000098006804F0F8F95FEA000916D0009850
:104BB0000190016941451ED10198494610F0CCFC95
:104BC00004007DD045F094FF0700DBD02046FEF7BF
:104BD00047FF5BA140F2975300953BE00C2445F062
:104BE00087FF07007BD02046FEF73AFF54A140F232
:104BF0008B5300952EE00EF0E2FA0390F0B101988D
:104C0000806810F03DFA0246039800900023019856
:104C1000414604F09BFF20B3826C04A940469047B4
:104C200080B3092445F064FF070027D02046FEF733
:104C300017FF43A140F2BB5300953CE0042445F02C
:104C400057FF07004BD02046FEF70AFF3CA140F279
:104C5000A5530095CDE901100020374A3749B847E0
:104C60003DE0012445F044FF070007D02046FEF751
:104C7000F7FE33A100954FF4B6631CE003980EF0E5
:104C800085FA2CE0FFE703980EF0A2F804AA01468B
:104C9000484604F0CDFAB8B104A803F099FB0C24FF
:104CA00045F026FF0700E9D02046FEF7D9FE24A1F3
:104CB00040F2C6530095CDE901101F4A1F4900E09C
:104CC00008E00020B847D9E703980EF05FFA04A87F
:104CD00003F07EFB761C22988642FFF427AF2298D1
:104CE00086420BD2B9F1000002D000BF04F0CAF92D
:104CF00017B02046BDE8F00F5DF814FB5246594648
:104D0000484604F06BF890B10C2445F0F1FE060023
:104D10000ED02046FEF7A4FE09A10095CDE90110B2
:104D20000020054A054940F2E553B04700E0002461
:104D30004846DBE7884D06086DB805088C4A06082A
:104D400028726573756C74203D202573290000005E
:104D5000617267756D656E74206E756D6265722027
:104D6000257A7520706173736564207468726F753D
:104D70006768207661726961626C6520617267752F
:104D80006D656E7473206973204E554C4C000000A5
:104D90002DE9F04188B01D46040016460F46DDF8A7
:104DA00038800CD0142012F0BBFC002804D006611F
:104DB000C0E90247C0E9005808B0BDE8F08145F0FD
:104DC00097FE5FEA000C0FD008490122CDF8188049
:104DD0000020CDE9024740F2F623CDE90021CDE9DC
:104DE0000465034A0349E0470020E5E7FC4706085D
:104DF000AEB6050800470608002801D011F096BE9F
:104E0000704700002DE9FF410F0005464FF00106F5
:104E100027D035B30846FBF762FC040032D0601C93
:104E200012F07EFC5FEA000836D022463946FBF7D6
:104E3000FCFB0021404608F8041002A90BF0CAF957
:104E4000002837D045F054FE040008D021A02B4A9A
:104E50002B4940F2A223CDE900600020A0470224A4
:104E600030E045F045FE040014D00DF1040825485B
:104E7000009640F28323214A88E8A10000202049BF
:104E8000A04707E045F034FE040003D01EA040F226
:104E90008E2308E0022418E045F02AFE0400F9D031
:104EA00022A04FF42573154A1549CDE90060002072
:104EB000A047EFE70299284602F09EFE04460298BA
:104EC0000CF068F9404611F031FE04B02046BDE810
:104ED000F08100004465636F64696E67204A534F38
:104EE0004E20746F2061206D756C7469207472653A
:104EF00065206661696C65640000000073B6050892
:104F0000004706085C4706084661696C65642062D4
:104F100065636175736520636F6D6D616E64207389
:104F2000697A65206973207A65726F004661696CE1
:104F3000656420746F20616C6C6F636174652074AC
:104F4000656D706F726172792073746F72616765DD
:104F500020666F722074686520636F6D6D616E648A
:104F600073204A534F4E00002DE9FF4104000E46C6
:104F70004FF0010516D0AEB1206820B36AB302A885
:104F8000114620F0B7FB70B345F0B2FD040022D00B
:104F900027A040F2D623354A3549CDE900500020FC
:104FA000A04718E045F0A4FD070014D00DF1040857
:104FB0003048009540F2BD232C4A88E8510000207B
:104FC0002B49B84707E045F093FD040003D02A4879
:104FD00040F2C623DFE7002426E00022204602F04C
:104FE00087FE044620E0FFE7029803A90BF0F2F8E1
:104FF00070B145F07DFD040008D020A01B4A1C497B
:1050000040F2DE23CDE900500020A047002408E054
:10501000039A3146204602F06BFE044603980CF0DA
:10502000B9F8029811F082FD04B02046BDE8F08185
:105030004661696C656420746F20616C6C6F63619C
:1050400074652074656D706F726172792073746F0E
:105050007261676520666F7220746865206D657483
:10506000686F64204A534F4E0000000091B6050857
:1050700000470608A8470608A44606084465636F6B
:1050800064696E67204A534F4E20746F2061206D13
:10509000756C74692074726565206661696C6564FD
:1050A000000000001A4810B586B0016841F0010107
:1050B0000160006800F00100059015481430016897
:1050C00041F010010160006801224FF4C06100F05E
:1050D00010000590022007230493CDE90010CDE9CC
:1050E00002200C48694605F045FB0C4800210A4A9D
:1050F0000C244FF4E1330260C0E90131C160C0E922
:1051000004148161C16106F0ABFD06B010BD000062
:1051100030380240000002400010014038060220F2
:10512000012105E0203A5F2A01D3002104E0401C60
:1051300010B10278002AF5D1084670472DE9F04FEA
:10514000050014464FF001082DED028B91B012D0EE
:105150008CB10A294FF0000A4FF0FF3670D018DCEE
:105160000A2904F1080924D2DFE801F023FD348C78
:10517000FCFBFAF923F8022545F0BAFC040047D0FD
:105180002846FCF7C3FCFEA240F65543CDF800804C
:105190001CE00E2970D006DC0B296ED00C296DD0D6
:1051A0000D2906D14FE0102969D0232936D02529B1
:1051B0007DD0032545F09CFC0400E0D02846FCF798
:1051C000A5FCEFA2CDF800804FF44663CDE90120A5
:1051D000EF4A16E2EFA12846FBF788FA4FF00206E5
:1051E00090B1EEA12846FBF781FA90B1022545F077
:1051F0007FFC0400C3D02846FCF788FCE0A240F600
:105200007643CDF80080E1E72670002584F808A0F9
:10521000B4E22670002584F80880F9E7E1A1FBF7E5
:1052200065FA70B1022545F063FC0400F0D0284611
:10523000FCF76CFCD2A240F68643CDF80080C5E7AF
:1052400041E02320A2E004A938F05FFF012805D146
:10525000049810F1800F01DB7F2811DD022545F055
:1052600047FC0400D4D02846FCF750FCC4A240F60A
:105270009643CDF80080A9E7C8E244E089E03FE327
:105280000D201BE004A9284638F03FFF012804D177
:105290000498002801DBFF280FDD022545F028FCDB
:1052A0000400B5D02846FCF731FCB5A200E079E354
:1052B00040F6AC43CDF8008088E7032020700498C6
:1052C000002520725AE204A938F01FFF012806D1F8
:1052D000049810F5004F02DBB0F5004F0DDB0225FE
:1052E00045F006FC040093D02846FCF70FFCA4A26E
:1052F00040F6C243CDF8008068E70A202070049889
:10530000002520813AE228782D2811D000262F464A
:105310002846FBF7E4F90A22814601A93846FBF743
:1053200091FB05460198874213D0681C03D006E024
:105330006F1C0126ECE711F0F5FB006848B9B9F1E4
:105340000B0F06D84FF00040854202D8854215D396
:10535000AEB9022545F0CCFB040005E068E31CE291
:1053600093E2BBE05BE0EBE3ACD02846FCF7CEFB7E
:1053700083A240F6EB43CDF8008027E726B18542B3
:1053800001D1054600E06D42A5600B20207000258C
:10539000F4E128782D280CD0002604952846FBF748
:1053A0009EF906A9054604A838F0CBFE012815D1C0
:1053B00003E0681C04900126F0E7142D0ED8DDE907
:1053C00006014FF0004243428A4100D236B9D0F183
:1053D000FF336FF000428A410ED276B9022545F0C4
:1053E00087FB04008ED02846FCF790FB64A240F6B1
:1053F0002453CDF80080E9E63EB181F0004202433B
:1054000009D00022404262EB01010C2222700025EB
:10541000C4E90201FCE300204FF00041F5E7284613
:10542000FBF75DF9022807D32978222904D1284403
:1054300010F8010C22280DD0022545F059FB04007C
:10544000A6D02846FCF762FB4DA240F64D53CDF89E
:105450000080BBE60221464605AB284606AACDF8E9
:10546000188037F0B8FB0423284604AA06A937F0B1
:1054700058FB30BB0698295C401C06902D2920D192
:105480000223284608AA06A937F04BFBC8B906989C
:10549000295C401C06902D2913D10223284607AA17
:1054A00006A937F03EFB60B9DDE9041048430799CF
:1054B000CBB20899CAB201B2204601F007F9002820
:1054C00074D0022545F014FB0400A3D02846FCF755
:1054D0001DFB2BA140F65E5300968FE006AA5746AF
:1054E0000020014682E883002846FBF7F8F884F89C
:1054F0003470022884F84070A66207D329782229E4
:1055000004D1284410F8010C22280DD0022545F0C2
:10551000EFFA040094D02846FCF7F8FA18A240F6F7
:105520008353CDF8008051E6022146460AAB284657
:105530000DAACDF8348037F04EFB0423284604AA88
:105540000DA937F0EEFA90BB0D98295C401C0D9028
:105550002D2946D10223284609AA0DA937F0E1FAE0
:1055600028BB0D98295C401C0D902D2939D10223B0
:10557000284605AA0DA937F0D4FAC0B90D9817E04E
:1055800028726573756C74203D2025732900000016
:10559000DEBB0508747275650000000066616C73FF
:1055A000650000006E756C6C0000000011E218E0F0
:1055B000295C401C0D90542913D1022328460EAAC1
:1055C0000DA937F0AEFA60B90D98295C401C0D901A
:1055D0003A2906D1022328460FAA0DA937F0A1FACD
:1055E00098B1022545F084FA040093D02846FCF7D0
:1055F0008DFAAFF2740140F697530096F54ACDE963
:1056000001100020F449A04702E30A990498484396
:105610003A2104902846FBF758F820B1C51CC07801
:105620003A280ED019E0022545F062FA0400EBD0CA
:105630002846FCF76BFAAFF2B80140F6A15300968A
:10564000DCE7109608AA297828463A2929D10223AE
:1056500010A937F066FA20BBED1C15B328782E2868
:1056600015D1019506A928782E281AD1681C019019
:1056700001A838F066FD012813D184F8346000BF1A
:1056800015F8010F68B130380928F9D94DB10CAAC5
:1056900028460BA90B970C9738F006FD02280ED070
:1056A0000FE0022545F024FA0400ADD02846FCF7AF
:1056B0002DFAAFF234114FF45D6300969EE784F843
:1056C0004060C6A12846FBF711F810B194F84000DD
:1056D000A0B30999DDE9040211F007F900BB0E98A7
:1056E00000281DDB17281BDC0F98002818DB3B283F
:1056F00016DC0898002813DB3B2811DCB849E820A9
:10570000DDE90623891A98410AD30B9810F1170F87
:1057100006DB172804DC0C98002801DB3B280EDD93
:10572000022545F0E5F90400BFD02846FCF7EEF964
:10573000AFF2B41140F6EE5300965FE71FE005208C
:1057400020700498A0F26C70E0610998401EA0617E
:10575000059860610E9820610F98E0600898A0603D
:1057600048461AF095FADDE906010025C4E90E0164
:105770000B9884F841000C9884F8420048E2022516
:1057800045F0B6F90400F9D02846FCF7BFF9AFF2AE
:10579000102140F60563009630E792A12846FAF7FB
:1057A000A5FF4FF00706F8B190A12846FAF79EFF33
:1057B0009FED908BD8B191A12846FAF797FFD8B109
:1057C00001A9284611F050FF84ED020B0198854293
:1057D0007DD0B4EE480BF1EE10FA14D111F0A2F91D
:1057E0000068002873D10EE09FED860B06E026705E
:1057F000002584ED028B0BE29FED840B26700025C3
:1058000084ED020B04E20025267001E275A1FAF78F
:105810006DFF4FF00E0658B374A12846FAF766FFE5
:1058200048B376A12846FAF761FF58B301A9284684
:1058300011F02EFF84ED020A0198854209D010EE86
:10584000100AB0F1FF4FDED111F06CF900680028AA
:10585000D9D0022545F04CF904008FD02846FCF73A
